{
  "contractName": "ERC20TokenBridge",
  "abi": [
    {
      "anonymous": false,
      "inputs": [
        {
          "indexed": false,
          "internalType": "uint256",
          "name": "amount",
          "type": "uint256"
        },
        {
          "indexed": false,
          "internalType": "bytes32",
          "name": "info_hash",
          "type": "bytes32"
        }
      ],
      "name": "Add_Penalty_Amount",
      "type": "event"
    },
    {
      "anonymous": false,
      "inputs": [
        {
          "indexed": false,
          "internalType": "uint256",
          "name": "request_id",
          "type": "uint256"
        },
        {
          "indexed": false,
          "internalType": "uint256",
          "name": "amount",
          "type": "uint256"
        },
        {
          "indexed": false,
          "internalType": "string",
          "name": "from",
          "type": "string"
        },
        {
          "indexed": false,
          "internalType": "uint256",
          "name": "depoist_address_id",
          "type": "uint256"
        },
        {
          "indexed": false,
          "internalType": "uint256",
          "name": "valid_until",
          "type": "uint256"
        }
      ],
      "name": "Create_Request",
      "type": "event"
    },
    {
      "anonymous": false,
      "inputs": [
        {
          "indexed": false,
          "internalType": "uint256[]",
          "name": "ids",
          "type": "uint256[]"
        }
      ],
      "name": "Delete_Deposit_Addresses",
      "type": "event"
    },
    {
      "anonymous": false,
      "inputs": [
        {
          "indexed": false,
          "internalType": "uint256",
          "name": "request_id",
          "type": "uint256"
        }
      ],
      "name": "Expire_Request",
      "type": "event"
    },
    {
      "anonymous": false,
      "inputs": [
        {
          "indexed": false,
          "internalType": "uint256",
          "name": "deposit_address_id",
          "type": "uint256"
        }
      ],
      "name": "Free_Deposit_Address",
      "type": "event"
    },
    {
      "anonymous": false,
      "inputs": [
        {
          "indexed": false,
          "internalType": "uint256",
          "name": "request_id",
          "type": "uint256"
        },
        {
          "indexed": false,
          "internalType": "string",
          "name": "tx_hash",
          "type": "string"
        }
      ],
      "name": "Prove_Request",
      "type": "event"
    },
    {
      "anonymous": false,
      "inputs": [
        {
          "indexed": false,
          "internalType": "uint256",
          "name": "request_id",
          "type": "uint256"
        }
      ],
      "name": "Reject_Request",
      "type": "event"
    },
    {
      "anonymous": false,
      "inputs": [
        {
          "indexed": false,
          "internalType": "uint256",
          "name": "request_id",
          "type": "uint256"
        },
        {
          "indexed": false,
          "internalType": "address",
          "name": "from",
          "type": "address"
        },
        {
          "indexed": false,
          "internalType": "uint256",
          "name": "amount",
          "type": "uint256"
        }
      ],
      "name": "Release",
      "type": "event"
    },
    {
      "anonymous": false,
      "inputs": [
        {
          "indexed": false,
          "internalType": "address",
          "name": "admin",
          "type": "address"
        }
      ],
      "name": "Set_Admin",
      "type": "event"
    },
    {
      "anonymous": false,
      "inputs": [
        {
          "indexed": false,
          "internalType": "uint256",
          "name": "fee_percent",
          "type": "uint256"
        },
        {
          "indexed": false,
          "internalType": "uint256",
          "name": "minimum_fee_amount",
          "type": "uint256"
        }
      ],
      "name": "Set_Fee",
      "type": "event"
    },
    {
      "anonymous": false,
      "inputs": [
        {
          "indexed": false,
          "internalType": "address",
          "name": "operator",
          "type": "address"
        },
        {
          "indexed": false,
          "internalType": "uint256",
          "name": "operating_limit",
          "type": "uint256"
        }
      ],
      "name": "Set_Operating_Limit",
      "type": "event"
    },
    {
      "anonymous": false,
      "inputs": [
        {
          "indexed": false,
          "internalType": "address",
          "name": "wallet",
          "type": "address"
        }
      ],
      "name": "Set_Penalty_Wallet",
      "type": "event"
    },
    {
      "anonymous": false,
      "inputs": [
        {
          "indexed": false,
          "internalType": "uint256",
          "name": "amount",
          "type": "uint256"
        },
        {
          "indexed": false,
          "internalType": "bytes32",
          "name": "info_hash",
          "type": "bytes32"
        }
      ],
      "name": "Subtract_Penalty_Amount",
      "type": "event"
    },
    {
      "inputs": [],
      "name": "admin",
      "outputs": [
        {
          "internalType": "address",
          "name": "",
          "type": "address"
        }
      ],
      "stateMutability": "view",
      "type": "function",
      "constant": true
    },
    {
      "inputs": [
        {
          "internalType": "uint256",
          "name": "",
          "type": "uint256"
        }
      ],
      "name": "bridge_operators",
      "outputs": [
        {
          "internalType": "address",
          "name": "",
          "type": "address"
        }
      ],
      "stateMutability": "view",
      "type": "function",
      "constant": true
    },
    {
      "inputs": [
        {
          "internalType": "uint256",
          "name": "",
          "type": "uint256"
        }
      ],
      "name": "deposit_address_deleted",
      "outputs": [
        {
          "internalType": "bool",
          "name": "",
          "type": "bool"
        }
      ],
      "stateMutability": "view",
      "type": "function",
      "constant": true
    },
    {
      "inputs": [
        {
          "internalType": "uint256",
          "name": "",
          "type": "uint256"
        }
      ],
      "name": "deposit_address_locktimes",
      "outputs": [
        {
          "internalType": "uint256",
          "name": "",
          "type": "uint256"
        }
      ],
      "stateMutability": "view",
      "type": "function",
      "constant": true
    },
    {
      "inputs": [
        {
          "internalType": "uint256",
          "name": "",
          "type": "uint256"
        }
      ],
      "name": "deposit_address_requests",
      "outputs": [
        {
          "internalType": "uint256",
          "name": "",
          "type": "uint256"
        }
      ],
      "stateMutability": "view",
      "type": "function",
      "constant": true
    },
    {
      "inputs": [
        {
          "internalType": "uint256",
          "name": "",
          "type": "uint256"
        }
      ],
      "name": "deposit_addresses",
      "outputs": [
        {
          "internalType": "string",
          "name": "",
          "type": "string"
        }
      ],
      "stateMutability": "view",
      "type": "function",
      "constant": true
    },
    {
      "inputs": [],
      "name": "erc20",
      "outputs": [
        {
          "internalType": "contract IERC20",
          "name": "",
          "type": "address"
        }
      ],
      "stateMutability": "view",
      "type": "function",
      "constant": true
    },
    {
      "inputs": [],
      "name": "fee_percent",
      "outputs": [
        {
          "internalType": "uint256",
          "name": "",
          "type": "uint256"
        }
      ],
      "stateMutability": "view",
      "type": "function",
      "constant": true
    },
    {
      "inputs": [],
      "name": "minimum_fee_amount",
      "outputs": [
        {
          "internalType": "uint256",
          "name": "",
          "type": "uint256"
        }
      ],
      "stateMutability": "view",
      "type": "function",
      "constant": true
    },
    {
      "inputs": [],
      "name": "penalty_amount",
      "outputs": [
        {
          "internalType": "uint256",
          "name": "",
          "type": "uint256"
        }
      ],
      "stateMutability": "view",
      "type": "function",
      "constant": true
    },
    {
      "inputs": [],
      "name": "penalty_wallet",
      "outputs": [
        {
          "internalType": "address",
          "name": "",
          "type": "address"
        }
      ],
      "stateMutability": "view",
      "type": "function",
      "constant": true
    },
    {
      "inputs": [
        {
          "internalType": "uint256",
          "name": "",
          "type": "uint256"
        }
      ],
      "name": "requests",
      "outputs": [
        {
          "internalType": "uint256",
          "name": "deposit_address_id",
          "type": "uint256"
        },
        {
          "internalType": "uint256",
          "name": "amount",
          "type": "uint256"
        },
        {
          "internalType": "bytes32",
          "name": "amount_hash",
          "type": "bytes32"
        },
        {
          "internalType": "bytes32",
          "name": "txdHash",
          "type": "bytes32"
        },
        {
          "internalType": "uint256",
          "name": "valid_until",
          "type": "uint256"
        },
        {
          "internalType": "uint256",
          "name": "prove_timestamp",
          "type": "uint256"
        },
        {
          "internalType": "address",
          "name": "to",
          "type": "address"
        },
        {
          "internalType": "enum ERC20TokenBridge.RequestStatus",
          "name": "status",
          "type": "uint8"
        },
        {
          "internalType": "string",
          "name": "from",
          "type": "string"
        },
        {
          "internalType": "string",
          "name": "txHash",
          "type": "string"
        }
      ],
      "stateMutability": "view",
      "type": "function",
      "constant": true
    },
    {
      "inputs": [
        {
          "internalType": "address",
          "name": "",
          "type": "address"
        },
        {
          "internalType": "uint256",
          "name": "",
          "type": "uint256"
        }
      ],
      "name": "user_requests",
      "outputs": [
        {
          "internalType": "uint256",
          "name": "",
          "type": "uint256"
        }
      ],
      "stateMutability": "view",
      "type": "function",
      "constant": true
    },
    {
      "inputs": [],
      "name": "initialize",
      "outputs": [],
      "stateMutability": "nonpayable",
      "type": "function"
    },
    {
      "inputs": [
        {
          "internalType": "string[]",
          "name": "new_addresses",
          "type": "string[]"
        }
      ],
      "name": "add_deposit_addresses",
      "outputs": [],
      "stateMutability": "nonpayable",
      "type": "function"
    },
    {
      "inputs": [],
      "name": "get_free_deposit_address_id",
      "outputs": [
        {
          "internalType": "uint256",
          "name": "",
          "type": "uint256"
        }
      ],
      "stateMutability": "view",
      "type": "function",
      "constant": true
    },
    {
      "inputs": [
        {
          "internalType": "uint256",
          "name": "amount",
          "type": "uint256"
        },
        {
          "internalType": "uint256",
          "name": "deposit_address_id",
          "type": "uint256"
        },
        {
          "internalType": "address",
          "name": "to",
          "type": "address"
        },
        {
          "internalType": "string",
          "name": "from",
          "type": "string"
        }
      ],
      "name": "create_request",
      "outputs": [],
      "stateMutability": "nonpayable",
      "type": "function"
    },
    {
      "inputs": [
        {
          "internalType": "uint256",
          "name": "request_id",
          "type": "uint256"
        },
        {
          "internalType": "string",
          "name": "tx_hash",
          "type": "string"
        }
      ],
      "name": "prove_request",
      "outputs": [],
      "stateMutability": "nonpayable",
      "type": "function"
    },
    {
      "inputs": [
        {
          "internalType": "uint256",
          "name": "request_id",
          "type": "uint256"
        }
      ],
      "name": "reject_request",
      "outputs": [],
      "stateMutability": "nonpayable",
      "type": "function"
    },
    {
      "inputs": [
        {
          "internalType": "uint256",
          "name": "request_id",
          "type": "uint256"
        },
        {
          "internalType": "uint256",
          "name": "amount",
          "type": "uint256"
        },
        {
          "internalType": "string",
          "name": "from",
          "type": "string"
        },
        {
          "internalType": "address",
          "name": "to",
          "type": "address"
        },
        {
          "internalType": "string",
          "name": "txHash",
          "type": "string"
        }
      ],
      "name": "release",
      "outputs": [],
      "stateMutability": "nonpayable",
      "type": "function"
    },
    {
      "inputs": [
        {
          "internalType": "address",
          "name": "_addr",
          "type": "address"
        }
      ],
      "name": "initERC20",
      "outputs": [],
      "stateMutability": "nonpayable",
      "type": "function"
    },
    {
      "inputs": [
        {
          "internalType": "address",
          "name": "user",
          "type": "address"
        }
      ],
      "name": "get_user_requests",
      "outputs": [
        {
          "internalType": "uint256[]",
          "name": "",
          "type": "uint256[]"
        }
      ],
      "stateMutability": "view",
      "type": "function",
      "constant": true
    },
    {
      "inputs": [
        {
          "internalType": "address",
          "name": "operator",
          "type": "address"
        },
        {
          "internalType": "uint256",
          "name": "operating_limit",
          "type": "uint256"
        }
      ],
      "name": "add_bridge_operator",
      "outputs": [],
      "stateMutability": "nonpayable",
      "type": "function"
    },
    {
      "inputs": [
        {
          "internalType": "address",
          "name": "operator",
          "type": "address"
        }
      ],
      "name": "isBridgeOperator",
      "outputs": [
        {
          "internalType": "bool",
          "name": "",
          "type": "bool"
        }
      ],
      "stateMutability": "view",
      "type": "function",
      "constant": true
    },
    {
      "inputs": [
        {
          "internalType": "address",
          "name": "operator",
          "type": "address"
        },
        {
          "internalType": "uint256",
          "name": "operating_limit",
          "type": "uint256"
        }
      ],
      "name": "set_operating_limit",
      "outputs": [],
      "stateMutability": "nonpayable",
      "type": "function"
    },
    {
      "inputs": [
        {
          "internalType": "uint256",
          "name": "_fee_percent",
          "type": "uint256"
        },
        {
          "internalType": "uint256",
          "name": "_minimum_fee_amount",
          "type": "uint256"
        }
      ],
      "name": "set_fee",
      "outputs": [],
      "stateMutability": "nonpayable",
      "type": "function"
    },
    {
      "inputs": [
        {
          "internalType": "uint256",
          "name": "from",
          "type": "uint256"
        },
        {
          "internalType": "uint256",
          "name": "to",
          "type": "uint256"
        }
      ],
      "name": "free_deposit_addresses",
      "outputs": [],
      "stateMutability": "nonpayable",
      "type": "function"
    },
    {
      "inputs": [
        {
          "internalType": "uint256[]",
          "name": "ids",
          "type": "uint256[]"
        }
      ],
      "name": "delete_deposit_addresses",
      "outputs": [],
      "stateMutability": "nonpayable",
      "type": "function"
    },
    {
      "inputs": [
        {
          "internalType": "address",
          "name": "_penalty_wallet",
          "type": "address"
        }
      ],
      "name": "set_penalty_wallet",
      "outputs": [],
      "stateMutability": "nonpayable",
      "type": "function"
    },
    {
      "inputs": [
        {
          "internalType": "address",
          "name": "_admin",
          "type": "address"
        }
      ],
      "name": "set_admin",
      "outputs": [],
      "stateMutability": "nonpayable",
      "type": "function"
    },
    {
      "inputs": [],
      "name": "get_new_request_id",
      "outputs": [
        {
          "internalType": "uint256",
          "name": "",
          "type": "uint256"
        }
      ],
      "stateMutability": "view",
      "type": "function",
      "constant": true
    },
    {
      "inputs": [],
      "name": "get_deposit_addresses",
      "outputs": [
        {
          "internalType": "string[]",
          "name": "",
          "type": "string[]"
        }
      ],
      "stateMutability": "view",
      "type": "function",
      "constant": true
    },
    {
      "inputs": [
        {
          "internalType": "uint256",
          "name": "amount",
          "type": "uint256"
        },
        {
          "internalType": "bytes32",
          "name": "info_hash",
          "type": "bytes32"
        }
      ],
      "name": "add_penalty_amount",
      "outputs": [],
      "stateMutability": "nonpayable",
      "type": "function"
    },
    {
      "inputs": [
        {
          "internalType": "uint256",
          "name": "amount",
          "type": "uint256"
        },
        {
          "internalType": "bytes32",
          "name": "info_hash",
          "type": "bytes32"
        }
      ],
      "name": "subtract_penalty_amount",
      "outputs": [],
      "stateMutability": "nonpayable",
      "type": "function"
    }
  ],
  "bytecode": "0x608060405234801561001057600080fd5b506148a8806100206000396000f3fe608060405234801561001057600080fd5b50600436106102065760003560e01c8063958fdb661161011a578063c8cee486116100ad578063eeb557831161007c578063eeb55783146105dc578063f586c1f11461060c578063f71db70a14610628578063f851a44014610646578063fef4e4ac1461066457610206565b8063c8cee48614610556578063d6af11f914610572578063e81f8335146105a2578063e9333fab146105c057610206565b8063b0d233a4116100e9578063b0d233a4146104be578063b405aaf2146104da578063c54a2f061461050a578063c5f81a791461053a57610206565b8063958fdb661461043a5780639b08420814610456578063a0102a9314610472578063a79110c7146104a257610206565b80635b12834d1161019d5780636ba9ec0a1161016c5780636ba9ec0a1461039f578063785e9e86146103bd5780638129fc1c146103db57806381d12c58146103e55780638e6860611461041e57610206565b80635b12834d146103055780635e39152914610321578063657b1652146103515780636ab0737c1461038157610206565b80634bc0cf9b116101d95780634bc0cf9b1461027b5780634c3119a1146102995780634ff2cc44146102b7578063551f4538146102d557610206565b80630d1537fe1461020b57806329c887c6146102275780633829f18f146102435780633cd905d31461025f575b600080fd5b61022560048036038101906102209190613005565b610680565b005b610241600480360381019061023c9190613097565b61080e565b005b61025d60048036038101906102589190613142565b610950565b005b610279600480360381019061027491906131a5565b610a5b565b005b610283610b41565b60405161029091906131f4565b60405180910390f35b6102a1610b67565b6040516102ae919061321e565b60405180910390f35b6102bf610b6d565b6040516102cc919061321e565b60405180910390f35b6102ef60048036038101906102ea9190613005565b610b73565b6040516102fc919061321e565b60405180910390f35b61031f600480360381019061031a9190613239565b610b97565b005b61033b60048036038101906103369190613005565b610cf0565b6040516103489190613294565b60405180910390f35b61036b60048036038101906103669190613005565b610d10565b604051610378919061321e565b60405180910390f35b610389610d28565b604051610396919061340a565b60405180910390f35b6103a7610e01565b6040516103b4919061321e565b60405180910390f35b6103c5610e07565b6040516103d2919061348b565b60405180910390f35b6103e3610e2d565b005b6103ff60048036038101906103fa9190613005565b610ed0565b6040516104159a99989796959493929190613576565b60405180910390f35b610438600480360381019061043391906131a5565b611071565b005b610454600480360381019061044f9190613676565b611183565b005b610470600480360381019061046b9190613239565b611322565b005b61048c60048036038101906104879190613239565b61152f565b604051610499919061321e565b60405180910390f35b6104bc60048036038101906104b79190613719565b611560565b005b6104d860048036038101906104d391906137a1565b611a27565b005b6104f460048036038101906104ef9190613142565b611b02565b6040516105019190613294565b60405180910390f35b610524600480360381019061051f9190613005565b611bb2565b60405161053191906137e1565b60405180910390f35b610554600480360381019061054f91906137a1565b611c5e565b005b610570600480360381019061056b9190613803565b611e6e565b005b61058c60048036038101906105879190613005565b61213d565b60405161059991906131f4565b60405180910390f35b6105aa61217c565b6040516105b7919061321e565b60405180910390f35b6105da60048036038101906105d59190613142565b612244565b005b6105f660048036038101906105f19190613142565b61234f565b6040516106039190613921565b60405180910390f35b61062660048036038101906106219190613142565b6123e6565b005b61063061242a565b60405161063d919061321e565b60405180910390f35b61064e612437565b60405161065b91906131f4565b60405180910390f35b61067e60048036038101906106799190613943565b61245d565b005b61068933611b02565b6106c8576040517f08c379a00000000000000000000000000000000000000000000000000000000081526004016106bf90613a4b565b60405180910390fd5b6000600b82815481106106de576106dd613a6b565b5b9060005260206000209060090201905060006004811115610702576107016134b5565b5b8160060160149054906101000a900460ff166004811115610726576107256134b5565b5b1480610767575060016004811115610741576107406134b5565b5b8160060160149054906101000a900460ff166004811115610765576107646134b5565b5b145b6107a6576040517f08c379a000000000000000000000000000000000000000000000000000000000815260040161079d90613ae6565b60405180910390fd5b60028160060160146101000a81548160ff021916908360048111156107ce576107cd6134b5565b5b02179055507f4385313fd34af3088de23168385fb10ffe3634d075102986ababf235c9bc9c8382604051610802919061321e565b60405180910390a15050565b3373ffffffffffffffffffffffffffffffffffffffff16600360009054906101000a900473ffffffffffffffffffffffffffffffffffffffff1673ffffffffffffffffffffffffffffffffffffffff161461089e576040517f08c379a000000000000000000000000000000000000000000000000000000000815260040161089590613b78565b60405180910390fd5b60005b8282905081101561094b5760078383838181106108c1576108c0613a6b565b5b90506020028101906108d39190613ba7565b9091806001815401808255809150506001900390600052602060002001600090919290919290919290919250919061090c929190612e1b565b506008600090806001815401808255809150506001900390600052602060002001600090919091909150556001816109449190613c39565b90506108a1565b505050565b3373ffffffffffffffffffffffffffffffffffffffff16600360009054906101000a900473ffffffffffffffffffffffffffffffffffffffff1673ffffffffffffffffffffffffffffffffffffffff16146109e0576040517f08c379a00000000000000000000000000000000000000000000000000000000081526004016109d790613b78565b60405180910390fd5b80600560006101000a81548173ffffffffffffffffffffffffffffffffffffffff021916908373ffffffffffffffffffffffffffffffffffffffff1602179055507fe1155384f4b10de8a253ca82beb755ba60a1daf35520d2109325babc3d4bd97a81604051610a5091906131f4565b60405180910390a150565b3373ffffffffffffffffffffffffffffffffffffffff16600360009054906101000a900473ffffffffffffffffffffffffffffffffffffffff1673ffffffffffffffffffffffffffffffffffffffff1614610aeb576040517f08c379a0000000000000000000000000000000000000000000000000000000008152600401610ae290613b78565b60405180910390fd5b8160046000828254610afd9190613c39565b925050819055507fb0e836199bdca2667de92af2ca76439a97e64d1d347e7ac1c14ea8114803ca428282604051610b35929190613c8f565b60405180910390a15050565b600560009054906101000a900473ffffffffffffffffffffffffffffffffffffffff1681565b60045481565b60015481565b60088181548110610b8357600080fd5b906000526020600020016000915090505481565b3373ffffffffffffffffffffffffffffffffffffffff16600360009054906101000a900473ffffffffffffffffffffffffffffffffffffffff1673ffffffffffffffffffffffffffffffffffffffff1614610c27576040517f08c379a0000000000000000000000000000000000000000000000000000000008152600401610c1e90613b78565b60405180910390fd5b610c3082611b02565b610c6f576040517f08c379a0000000000000000000000000000000000000000000000000000000008152600401610c6690613a4b565b60405180910390fd5b80600e60008473ffffffffffffffffffffffffffffffffffffffff1673ffffffffffffffffffffffffffffffffffffffff168152602001908152602001600020819055507f9156b7e2901a6aa60c38caca735100468a7aed42840592331705c3492b83f3b18282604051610ce4929190613cb8565b60405180910390a15050565b60096020528060005260406000206000915054906101000a900460ff1681565b600a6020528060005260406000206000915090505481565b60606007805480602002602001604051908101604052809291908181526020016000905b82821015610df8578382906000526020600020018054610d6b90613d10565b80601f0160208091040260200160405190810160405280929190818152602001828054610d9790613d10565b8015610de45780601f10610db957610100808354040283529160200191610de4565b820191906000526020600020905b815481529060010190602001808311610dc757829003601f168201915b505050505081526020019060010190610d4c565b50505050905090565b60025481565b600660009054906101000a900473ffffffffffffffffffffffffffffffffffffffff1681565b6207a120600181905550603260028190555033600360006101000a81548173ffffffffffffffffffffffffffffffffffffffff021916908373ffffffffffffffffffffffffffffffffffffffff16021790555060004690508060008190555033600560006101000a81548173ffffffffffffffffffffffffffffffffffffffff021916908373ffffffffffffffffffffffffffffffffffffffff16021790555050565b600b8181548110610ee057600080fd5b90600052602060002090600902016000915090508060000154908060010154908060020154908060030154908060040154908060050154908060060160009054906101000a900473ffffffffffffffffffffffffffffffffffffffff16908060060160149054906101000a900460ff1690806007018054610f6090613d10565b80601f0160208091040260200160405190810160405280929190818152602001828054610f8c90613d10565b8015610fd95780601f10610fae57610100808354040283529160200191610fd9565b820191906000526020600020905b815481529060010190602001808311610fbc57829003601f168201915b505050505090806008018054610fee90613d10565b80601f016020809104026020016040519081016040528092919081815260200182805461101a90613d10565b80156110675780601f1061103c57610100808354040283529160200191611067565b820191906000526020600020905b81548152906001019060200180831161104a57829003601f168201915b505050505090508a565b3373ffffffffffffffffffffffffffffffffffffffff16600360009054906101000a900473ffffffffffffffffffffffffffffffffffffffff1673ffffffffffffffffffffffffffffffffffffffff1614611101576040517f08c379a00000000000000000000000000000000000000000000000000000000081526004016110f890613b78565b60405180910390fd5b816004541015611146576040517f08c379a000000000000000000000000000000000000000000000000000000000815260040161113d90613d8e565b60405180910390fd5b7f190f3694e0f5f706c5a0db2760ad19e545f4e31e8503a2990de9c9ab0cdf5b378282604051611177929190613c8f565b60405180910390a15050565b3373ffffffffffffffffffffffffffffffffffffffff16600360009054906101000a900473ffffffffffffffffffffffffffffffffffffffff1673ffffffffffffffffffffffffffffffffffffffff1614611213576040517f08c379a000000000000000000000000000000000000000000000000000000000815260040161120a90613b78565b60405180910390fd5b600080600090505b838390508110156112e35783838281811061123957611238613a6b565b5b90506020020135915060006008828154811061125857611257613a6b565b5b9060005260206000200154146112a3576040517f08c379a000000000000000000000000000000000000000000000000000000000815260040161129a90613dfa565b60405180910390fd5b60016009600084815260200190815260200160002060006101000a81548160ff0219169083151502179055506001816112dc9190613c39565b905061121b565b507f5d29be006420ce1f47905536445c55e0664aaef5e8c82298dbdbf9810aaf21b28383604051611315929190613e8a565b60405180910390a1505050565b3373ffffffffffffffffffffffffffffffffffffffff16600360009054906101000a900473ffffffffffffffffffffffffffffffffffffffff1673ffffffffffffffffffffffffffffffffffffffff16146113b2576040517f08c379a00000000000000000000000000000000000000000000000000000000081526004016113a990613b78565b60405180910390fd5b60005b600d80549050811015611483578273ffffffffffffffffffffffffffffffffffffffff16600d82815481106113ed576113ec613a6b565b5b9060005260206000200160009054906101000a900473ffffffffffffffffffffffffffffffffffffffff1673ffffffffffffffffffffffffffffffffffffffff16141561146f576040517f08c379a000000000000000000000000000000000000000000000000000000000815260040161146690613efa565b60405180910390fd5b60018161147c9190613c39565b90506113b5565b50600d829080600181540180825580915050600190039060005260206000200160009091909190916101000a81548173ffffffffffffffffffffffffffffffffffffffff021916908373ffffffffffffffffffffffffffffffffffffffff16021790555080600e60008473ffffffffffffffffffffffffffffffffffffffff1673ffffffffffffffffffffffffffffffffffffffff168152602001908152602001600020819055505050565b600c602052816000526040600020818154811061154b57600080fd5b90600052602060002001600091509150505481565b83600015156009600083815260200190815260200160002060009054906101000a900460ff161515146115c8576040517f08c379a00000000000000000000000000000000000000000000000000000000081526004016115bf90613f66565b60405180910390fd5b3373ffffffffffffffffffffffffffffffffffffffff168473ffffffffffffffffffffffffffffffffffffffff1614611636576040517f08c379a000000000000000000000000000000000000000000000000000000000815260040161162d90613ff8565b60405180910390fd5b600254861161167a576040517f08c379a000000000000000000000000000000000000000000000000000000000815260040161167190614064565b60405180910390fd5b6000600b80549050905061168c612ea1565b8781602001818152505081886040516020016116a99291906140a5565b60405160208183030381529060405280519060200120816040018181525050858160c0019073ffffffffffffffffffffffffffffffffffffffff16908173ffffffffffffffffffffffffffffffffffffffff168152505084848080601f016020809104026020016040519081016040528093929190818152602001838380828437600081840152601f19601f820116905080830192505050505050508161010001819052508660088054905011611795576040517f08c379a000000000000000000000000000000000000000000000000000000000815260040161178c9061411d565b60405180910390fd5b6000600888815481106117ab576117aa613a6b565b5b9060005260206000200154146117f6576040517f08c379a00000000000000000000000000000000000000000000000000000000081526004016117ed90614189565b60405180910390fd5b8681600001818152505081600a60008981526020019081526020016000208190555060006202a300426118299190613c39565b905080826080018181525050806008898154811061184a57611849613a6b565b5b9060005260206000200181905550600b829080600181540180825580915050600190039060005260206000209060090201600090919091909150600082015181600001556020820151816001015560408201518160020155606082015181600301556080820151816004015560a0820151816005015560c08201518160060160006101000a81548173ffffffffffffffffffffffffffffffffffffffff021916908373ffffffffffffffffffffffffffffffffffffffff16021790555060e08201518160060160146101000a81548160ff02191690836004811115611932576119316134b5565b5b0217905550610100820151816007019080519060200190611954929190612f22565b50610120820151816008019080519060200190611972929190612f22565b505050600c60008873ffffffffffffffffffffffffffffffffffffffff1673ffffffffffffffffffffffffffffffffffffffff1681526020019081526020016000208390806001815401808255809150506001900390600052602060002001600090919091909150557fbc6c2c45f2fd0d0a5fa98cc0ee057322ec934901319256bc88db2bda88b699b4838a88888c86604051611a14969594939291906141d6565b60405180910390a1505050505050505050565b3373ffffffffffffffffffffffffffffffffffffffff16600360009054906101000a900473ffffffffffffffffffffffffffffffffffffffff1673ffffffffffffffffffffffffffffffffffffffff1614611ab7576040517f08c379a0000000000000000000000000000000000000000000000000000000008152600401611aae90613b78565b60405180910390fd5b81600181905550806002819055507f4504b318467fa60cf10fb04c83f2878fe796b000b5158fb22ea57d517d7336b78282604051611af6929190614232565b60405180910390a15050565b600080600090505b600d80549050811015611ba7578273ffffffffffffffffffffffffffffffffffffffff16600d8281548110611b4257611b41613a6b565b5b9060005260206000200160009054906101000a900473ffffffffffffffffffffffffffffffffffffffff1673ffffffffffffffffffffffffffffffffffffffff161415611b93576001915050611bad565b600181611ba09190613c39565b9050611b0a565b60009150505b919050565b60078181548110611bc257600080fd5b906000526020600020016000915090508054611bdd90613d10565b80601f0160208091040260200160405190810160405280929190818152602001828054611c0990613d10565b8015611c565780601f10611c2b57610100808354040283529160200191611c56565b820191906000526020600020905b815481529060010190602001808311611c3957829003601f168201915b505050505081565b3373ffffffffffffffffffffffffffffffffffffffff16600360009054906101000a900473ffffffffffffffffffffffffffffffffffffffff1673ffffffffffffffffffffffffffffffffffffffff1614611cee576040517f08c379a0000000000000000000000000000000000000000000000000000000008152600401611ce590613b78565b60405180910390fd5b6000808390505b60088054905081108015611d095750828111155b15611e68574260088281548110611d2357611d22613a6b565b5b90600052602060002001541015611e5457600a600082815260200190815260200160002054915060006004811115611d5e57611d5d6134b5565b5b600b8381548110611d7257611d71613a6b565b5b906000526020600020906009020160060160149054906101000a900460ff166004811115611da357611da26134b5565b5b1415611e53576003600b8381548110611dbf57611dbe613a6b565b5b906000526020600020906009020160060160146101000a81548160ff02191690836004811115611df257611df16134b5565b5b0217905550600060088281548110611e0d57611e0c613a6b565b5b90600052602060002001819055507fb8ca3e173d502cf9480419edafe6eb4b7050be203e101a7194a73957418673fd81604051611e4a919061321e565b60405180910390a15b5b600181611e619190613c39565b9050611cf5565b50505050565b6000600b8481548110611e8457611e83613a6b565b5b906000526020600020906009020190503373ffffffffffffffffffffffffffffffffffffffff168160060160009054906101000a900473ffffffffffffffffffffffffffffffffffffffff1673ffffffffffffffffffffffffffffffffffffffff1614611f26576040517f08c379a0000000000000000000000000000000000000000000000000000000008152600401611f1d906142a7565b60405180910390fd5b60006004811115611f3a57611f396134b5565b5b8160060160149054906101000a900460ff166004811115611f5e57611f5d6134b5565b5b14611f9e576040517f08c379a0000000000000000000000000000000000000000000000000000000008152600401611f9590613ae6565b60405180910390fd5b428160040154101561201d5760038160060160146101000a81548160ff02191690836004811115611fd257611fd16134b5565b5b02179055504281600501819055507fb0480cf527111cba6c26fc4e6b1898cbd95838c1d21b05b6fc79ca91b4adfe328460405161200f919061321e565b60405180910390a150612138565b600083836040516020016120329291906142f7565b60405160208183030381529060405280519060200120905060001515600f600083815260200190815260200160002060009054906101000a900460ff161515146120b1576040517f08c379a00000000000000000000000000000000000000000000000000000000081526004016120a89061435c565b60405180910390fd5b80826003018190555060018260060160146101000a81548160ff021916908360048111156120e2576120e16134b5565b5b0217905550428260050181905550600082600101819055507f2f235f0fdefdadc02d68f238d0c29d531e1d9f11c90877531aac7015b42c6a5885858560405161212d9392919061437c565b60405180910390a150505b505050565b600d818154811061214d57600080fd5b906000526020600020016000915054906101000a900473ffffffffffffffffffffffffffffffffffffffff1681565b600080600090505b60088054905081101561220557600015156009600083815260200190815260200160002060009054906101000a900460ff1615151480156121e357506000600882815481106121d6576121d5613a6b565b5b9060005260206000200154145b156121f15780915050612241565b6001816121fe9190613c39565b9050612184565b506040517f08c379a0000000000000000000000000000000000000000000000000000000008152600401612238906143fa565b60405180910390fd5b90565b3373ffffffffffffffffffffffffffffffffffffffff16600360009054906101000a900473ffffffffffffffffffffffffffffffffffffffff1673ffffffffffffffffffffffffffffffffffffffff16146122d4576040517f08c379a00000000000000000000000000000000000000000000000000000000081526004016122cb90613b78565b60405180910390fd5b80600360006101000a81548173ffffffffffffffffffffffffffffffffffffffff021916908373ffffffffffffffffffffffffffffffffffffffff1602179055507fa78603a1c7fdf4091156c65e1c33776962ec1d9d753f07346a51a96d6aef39ce8160405161234491906131f4565b60405180910390a150565b6060600c60008373ffffffffffffffffffffffffffffffffffffffff1673ffffffffffffffffffffffffffffffffffffffff1681526020019081526020016000208054806020026020016040519081016040528092919081815260200182805480156123da57602002820191906000526020600020905b8154815260200190600101908083116123c6575b50505050509050919050565b80600660006101000a81548173ffffffffffffffffffffffffffffffffffffffff021916908373ffffffffffffffffffffffffffffffffffffffff16021790555050565b6000600b80549050905090565b600360009054906101000a900473ffffffffffffffffffffffffffffffffffffffff1681565b61246633611b02565b6124a5576040517f08c379a000000000000000000000000000000000000000000000000000000000815260040161249c90613a4b565b60405180910390fd5b6000600b88815481106124bb576124ba613a6b565b5b9060005260206000209060090201905086600e60003373ffffffffffffffffffffffffffffffffffffffff1673ffffffffffffffffffffffffffffffffffffffff16815260200190815260200160002054101561254d576040517f08c379a000000000000000000000000000000000000000000000000000000000815260040161254490614466565b60405180910390fd5b60016004811115612561576125606134b5565b5b8160060160149054906101000a900460ff166004811115612585576125846134b5565b5b146125c5576040517f08c379a00000000000000000000000000000000000000000000000000000000081526004016125bc90613ae6565b60405180910390fd5b82826040516020016125d89291906142f7565b60405160208183030381529060405280519060200120816003015414612633576040517f08c379a000000000000000000000000000000000000000000000000000000000815260040161262a906144d2565b60405180910390fd5b60001515600f60008360030154815260200190815260200160002060009054906101000a900460ff1615151461269e576040517f08c379a00000000000000000000000000000000000000000000000000000000081526004016126959061453e565b60405180910390fd5b87876040516020016126b19291906140a5565b6040516020818303038152906040528051906020012081600201541461270c576040517f08c379a0000000000000000000000000000000000000000000000000000000008152600401612703906145aa565b60405180910390fd5b858560405160200161271f9291906142f7565b6040516020818303038152906040528051906020012081600701604051602001612749919061465e565b604051602081830303815290604052805190602001201461279f576040517f08c379a0000000000000000000000000000000000000000000000000000000008152600401612796906146c1565b60405180910390fd5b8373ffffffffffffffffffffffffffffffffffffffff168160060160009054906101000a900473ffffffffffffffffffffffffffffffffffffffff1673ffffffffffffffffffffffffffffffffffffffff1614612831576040517f08c379a00000000000000000000000000000000000000000000000000000000081526004016128289061472d565b60405180910390fd5b8282826008019190612844929190612e1b565b506000600882600001548154811061285f5761285e613a6b565b5b906000526020600020018190555086816001018190555060048160060160146101000a81548160ff0219169083600481111561289e5761289d6134b5565b5b02179055506001600f60008360030154815260200190815260200160002060006101000a81548160ff02191690831515021790555060006305f5e10060015483600101546128ec919061474d565b6128f691906147d6565b90506002548110156129085760025490505b600660009054906101000a900473ffffffffffffffffffffffffffffffffffffffff1673ffffffffffffffffffffffffffffffffffffffff166340c10f19308385600101546129579190614807565b6040518363ffffffff1660e01b8152600401612974929190613cb8565b600060405180830381600087803b15801561298e57600080fd5b505af11580156129a2573d6000803e3d6000fd5b50505050600660009054906101000a900473ffffffffffffffffffffffffffffffffffffffff1673ffffffffffffffffffffffffffffffffffffffff1663a9059cbb8360060160009054906101000a900473ffffffffffffffffffffffffffffffffffffffff16838560010154612a199190614807565b6040518363ffffffff1660e01b8152600401612a36929190613cb8565b600060405180830381600087803b158015612a5057600080fd5b505af1158015612a64573d6000803e3d6000fd5b5050505060006004541115612cbc57806004541115612b4c57600660009054906101000a900473ffffffffffffffffffffffffffffffffffffffff1673ffffffffffffffffffffffffffffffffffffffff166340c10f19600560009054906101000a900473ffffffffffffffffffffffffffffffffffffffff16836040518363ffffffff1660e01b8152600401612afc929190613cb8565b600060405180830381600087803b158015612b1657600080fd5b505af1158015612b2a573d6000803e3d6000fd5b505050508060046000828254612b409190614807565b92505081905550612cb7565b600660009054906101000a900473ffffffffffffffffffffffffffffffffffffffff1673ffffffffffffffffffffffffffffffffffffffff166340c10f19600560009054906101000a900473ffffffffffffffffffffffffffffffffffffffff166004546040518363ffffffff1660e01b8152600401612bcd929190613cb8565b600060405180830381600087803b158015612be757600080fd5b505af1158015612bfb573d6000803e3d6000fd5b50505050600660009054906101000a900473ffffffffffffffffffffffffffffffffffffffff1673ffffffffffffffffffffffffffffffffffffffff166340c10f193360045484612c4c9190614807565b6040518363ffffffff1660e01b8152600401612c69929190613cb8565b600060405180830381600087803b158015612c8357600080fd5b505af1158015612c97573d6000803e3d6000fd5b5050505060045460046000828254612caf9190614807565b925050819055505b612d4c565b600660009054906101000a900473ffffffffffffffffffffffffffffffffffffffff1673ffffffffffffffffffffffffffffffffffffffff166340c10f1933836040518363ffffffff1660e01b8152600401612d19929190613cb8565b600060405180830381600087803b158015612d3357600080fd5b505af1158015612d47573d6000803e3d6000fd5b505050505b87600e60003373ffffffffffffffffffffffffffffffffffffffff1673ffffffffffffffffffffffffffffffffffffffff1681526020019081526020016000206000828254612d9b9190614807565b925050819055507fe332e9963bc980fb82ccd3e7e181d76bddde349eec46b4ba393f3444529cd17f898360060160009054906101000a900473ffffffffffffffffffffffffffffffffffffffff16838560010154612df99190614807565b604051612e089392919061483b565b60405180910390a1505050505050505050565b828054612e2790613d10565b90600052602060002090601f016020900481019282612e495760008555612e90565b82601f10612e6257803560ff1916838001178555612e90565b82800160010185558215612e90579182015b82811115612e8f578235825591602001919060010190612e74565b5b509050612e9d9190612fa8565b5090565b604051806101400160405280600081526020016000815260200160008019168152602001600080191681526020016000815260200160008152602001600073ffffffffffffffffffffffffffffffffffffffff16815260200160006004811115612f0e57612f0d6134b5565b5b815260200160608152602001606081525090565b828054612f2e90613d10565b90600052602060002090601f016020900481019282612f505760008555612f97565b82601f10612f6957805160ff1916838001178555612f97565b82800160010185558215612f97579182015b82811115612f96578251825591602001919060010190612f7b565b5b509050612fa49190612fa8565b5090565b5b80821115612fc1576000816000905550600101612fa9565b5090565b600080fd5b600080fd5b6000819050919050565b612fe281612fcf565b8114612fed57600080fd5b50565b600081359050612fff81612fd9565b92915050565b60006020828403121561301b5761301a612fc5565b5b600061302984828501612ff0565b91505092915050565b600080fd5b600080fd5b600080fd5b60008083601f84011261305757613056613032565b5b8235905067ffffffffffffffff81111561307457613073613037565b5b6020830191508360208202830111156130905761308f61303c565b5b9250929050565b600080602083850312156130ae576130ad612fc5565b5b600083013567ffffffffffffffff8111156130cc576130cb612fca565b5b6130d885828601613041565b92509250509250929050565b600073ffffffffffffffffffffffffffffffffffffffff82169050919050565b600061310f826130e4565b9050919050565b61311f81613104565b811461312a57600080fd5b50565b60008135905061313c81613116565b92915050565b60006020828403121561315857613157612fc5565b5b60006131668482850161312d565b91505092915050565b6000819050919050565b6131828161316f565b811461318d57600080fd5b50565b60008135905061319f81613179565b92915050565b600080604083850312156131bc576131bb612fc5565b5b60006131ca85828601612ff0565b92505060206131db85828601613190565b9150509250929050565b6131ee81613104565b82525050565b600060208201905061320960008301846131e5565b92915050565b61321881612fcf565b82525050565b6000602082019050613233600083018461320f565b92915050565b600080604083850312156132505761324f612fc5565b5b600061325e8582860161312d565b925050602061326f85828601612ff0565b9150509250929050565b60008115159050919050565b61328e81613279565b82525050565b60006020820190506132a96000830184613285565b92915050565b600081519050919050565b600082825260208201905092915050565b6000819050602082019050919050565b600081519050919050565b600082825260208201905092915050565b60005b838110156133155780820151818401526020810190506132fa565b83811115613324576000848401525b50505050565b6000601f19601f8301169050919050565b6000613346826132db565b61335081856132e6565b93506133608185602086016132f7565b6133698161332a565b840191505092915050565b6000613380838361333b565b905092915050565b6000602082019050919050565b60006133a0826132af565b6133aa81856132ba565b9350836020820285016133bc856132cb565b8060005b858110156133f857848403895281516133d98582613374565b94506133e483613388565b925060208a019950506001810190506133c0565b50829750879550505050505092915050565b600060208201905081810360008301526134248184613395565b905092915050565b6000819050919050565b600061345161344c613447846130e4565b61342c565b6130e4565b9050919050565b600061346382613436565b9050919050565b600061347582613458565b9050919050565b6134858161346a565b82525050565b60006020820190506134a0600083018461347c565b92915050565b6134af8161316f565b82525050565b7f4e487b7100000000000000000000000000000000000000000000000000000000600052602160045260246000fd5b600581106134f5576134f46134b5565b5b50565b6000819050613506826134e4565b919050565b6000613516826134f8565b9050919050565b6135268161350b565b82525050565b600082825260208201905092915050565b6000613548826132db565b613552818561352c565b93506135628185602086016132f7565b61356b8161332a565b840191505092915050565b60006101408201905061358c600083018d61320f565b613599602083018c61320f565b6135a6604083018b6134a6565b6135b3606083018a6134a6565b6135c0608083018961320f565b6135cd60a083018861320f565b6135da60c08301876131e5565b6135e760e083018661351d565b8181036101008301526135fa818561353d565b905081810361012083015261360f818461353d565b90509b9a5050505050505050505050565b60008083601f84011261363657613635613032565b5b8235905067ffffffffffffffff81111561365357613652613037565b5b60208301915083602082028301111561366f5761366e61303c565b5b9250929050565b6000806020838503121561368d5761368c612fc5565b5b600083013567ffffffffffffffff8111156136ab576136aa612fca565b5b6136b785828601613620565b92509250509250929050565b60008083601f8401126136d9576136d8613032565b5b8235905067ffffffffffffffff8111156136f6576136f5613037565b5b6020830191508360018202830111156137125761371161303c565b5b9250929050565b60008060008060006080868803121561373557613734612fc5565b5b600061374388828901612ff0565b955050602061375488828901612ff0565b94505060406137658882890161312d565b935050606086013567ffffffffffffffff81111561378657613785612fca565b5b613792888289016136c3565b92509250509295509295909350565b600080604083850312156137b8576137b7612fc5565b5b60006137c685828601612ff0565b92505060206137d785828601612ff0565b9150509250929050565b600060208201905081810360008301526137fb818461353d565b905092915050565b60008060006040848603121561381c5761381b612fc5565b5b600061382a86828701612ff0565b935050602084013567ffffffffffffffff81111561384b5761384a612fca565b5b613857868287016136c3565b92509250509250925092565b600081519050919050565b600082825260208201905092915050565b6000819050602082019050919050565b61389881612fcf565b82525050565b60006138aa838361388f565b60208301905092915050565b6000602082019050919050565b60006138ce82613863565b6138d8818561386e565b93506138e38361387f565b8060005b838110156139145781516138fb888261389e565b9750613906836138b6565b9250506001810190506138e7565b5085935050505092915050565b6000602082019050818103600083015261393b81846138c3565b905092915050565b600080600080600080600060a0888a03121561396257613961612fc5565b5b60006139708a828b01612ff0565b97505060206139818a828b01612ff0565b965050604088013567ffffffffffffffff8111156139a2576139a1612fca565b5b6139ae8a828b016136c3565b955095505060606139c18a828b0161312d565b935050608088013567ffffffffffffffff8111156139e2576139e1612fca565b5b6139ee8a828b016136c3565b925092505092959891949750929550565b7f4e6f74206120627269646765206f70657261746f720000000000000000000000600082015250565b6000613a3560158361352c565b9150613a40826139ff565b602082019050919050565b60006020820190508181036000830152613a6481613a28565b9050919050565b7f4e487b7100000000000000000000000000000000000000000000000000000000600052603260045260246000fd5b7f496e76616c696420737461747573000000000000000000000000000000000000600082015250565b6000613ad0600e8361352c565b9150613adb82613a9a565b602082019050919050565b60006020820190508181036000830152613aff81613ac3565b9050919050565b7f4f6e6c792041646d696e2063616e20706572666f726d2074686973206f70657260008201527f6174696f6e2e0000000000000000000000000000000000000000000000000000602082015250565b6000613b6260268361352c565b9150613b6d82613b06565b604082019050919050565b60006020820190508181036000830152613b9181613b55565b9050919050565b600080fd5b600080fd5b600080fd5b60008083356001602003843603038112613bc457613bc3613b98565b5b80840192508235915067ffffffffffffffff821115613be657613be5613b9d565b5b602083019250600182023603831315613c0257613c01613ba2565b5b509250929050565b7f4e487b7100000000000000000000000000000000000000000000000000000000600052601160045260246000fd5b6000613c4482612fcf565b9150613c4f83612fcf565b9250827fffffffffffffffffffffffffffffffffffffffffffffffffffffffffffffffff03821115613c8457613c83613c0a565b5b828201905092915050565b6000604082019050613ca4600083018561320f565b613cb160208301846134a6565b9392505050565b6000604082019050613ccd60008301856131e5565b613cda602083018461320f565b9392505050565b7f4e487b7100000000000000000000000000000000000000000000000000000000600052602260045260246000fd5b60006002820490506001821680613d2857607f821691505b60208210811415613d3c57613d3b613ce1565b5b50919050565b7f6f7665722070656e616c747920616d6f756e7400000000000000000000000000600082015250565b6000613d7860138361352c565b9150613d8382613d42565b602082019050919050565b60006020820190508181036000830152613da781613d6b565b9050919050565b7f416374697665206465706f736974206164647265737300000000000000000000600082015250565b6000613de460168361352c565b9150613def82613dae565b602082019050919050565b60006020820190508181036000830152613e1381613dd7565b9050919050565b600080fd5b82818337600083830152505050565b6000613e3a838561386e565b93507f07ffffffffffffffffffffffffffffffffffffffffffffffffffffffffffffff831115613e6d57613e6c613e1a565b5b602083029250613e7e838584613e1f565b82840190509392505050565b60006020820190508181036000830152613ea5818486613e2e565b90509392505050565b7f416c726561647920657869737473000000000000000000000000000000000000600082015250565b6000613ee4600e8361352c565b9150613eef82613eae565b602082019050919050565b60006020820190508181036000830152613f1381613ed7565b9050919050565b7f4465706f73697420616464726573732064656c65746564000000000000000000600082015250565b6000613f5060178361352c565b9150613f5b82613f1a565b602082019050919050565b60006020820190508181036000830152613f7f81613f43565b9050919050565b7f64657374696e6174696f6e20616464726573732073686f756c6420626520736560008201527f6e64657200000000000000000000000000000000000000000000000000000000602082015250565b6000613fe260248361352c565b9150613fed82613f86565b604082019050919050565b6000602082019050818103600083015261401181613fd5565b9050919050565b7f42656c6f77206d696e696d756d20616d6f756e74000000000000000000000000600082015250565b600061404e60148361352c565b915061405982614018565b602082019050919050565b6000602082019050818103600083015261407d81614041565b9050919050565b6000819050919050565b61409f61409a82612fcf565b614084565b82525050565b60006140b1828561408e565b6020820191506140c1828461408e565b6020820191508190509392505050565b7f6465706f7369745f616464726573735f6964206f7574206f6620696e64657800600082015250565b6000614107601f8361352c565b9150614112826140d1565b602082019050919050565b60006020820190508181036000830152614136816140fa565b9050919050565b7f4465706f736974206164647265737320697320696e2075736500000000000000600082015250565b600061417360198361352c565b915061417e8261413d565b602082019050919050565b600060208201905081810360008301526141a281614166565b9050919050565b60006141b5838561352c565b93506141c2838584613e1f565b6141cb8361332a565b840190509392505050565b600060a0820190506141eb600083018961320f565b6141f8602083018861320f565b818103604083015261420b8186886141a9565b905061421a606083018561320f565b614227608083018461320f565b979650505050505050565b6000604082019050614247600083018561320f565b614254602083018461320f565b9392505050565b7f496e76616c6964206163636f756e740000000000000000000000000000000000600082015250565b6000614291600f8361352c565b915061429c8261425b565b602082019050919050565b600060208201905081810360008301526142c081614284565b9050919050565b600081905092915050565b60006142de83856142c7565b93506142eb838584613e1f565b82840190509392505050565b60006143048284866142d2565b91508190509392505050565b7f496e76616c696420747820686173680000000000000000000000000000000000600082015250565b6000614346600f8361352c565b915061435182614310565b602082019050919050565b6000602082019050818103600083015261437581614339565b9050919050565b6000604082019050614391600083018661320f565b81810360208301526143a48184866141a9565b9050949350505050565b7f416c6c206465706f736974206164647265737365732061726520696e20757365600082015250565b60006143e460208361352c565b91506143ef826143ae565b602082019050919050565b60006020820190508181036000830152614413816143d7565b9050919050565b7f416d6f756e742065786365656473206f7065726174696e67206c696d69740000600082015250565b6000614450601e8361352c565b915061445b8261441a565b602082019050919050565b6000602082019050818103600083015261447f81614443565b9050919050565b7f496e76616c696420747848617368000000000000000000000000000000000000600082015250565b60006144bc600e8361352c565b91506144c782614486565b602082019050919050565b600060208201905081810360008301526144eb816144af565b9050919050565b7f547864206861736820616c72656164792070726f636573736564000000000000600082015250565b6000614528601a8361352c565b9150614533826144f2565b602082019050919050565b600060208201905081810360008301526145578161451b565b9050919050565b7f496e636f727265637420616d6f756e7400000000000000000000000000000000600082015250565b600061459460108361352c565b915061459f8261455e565b602082019050919050565b600060208201905081810360008301526145c381614587565b9050919050565b60008190508160005260206000209050919050565b600081546145ec81613d10565b6145f681866142c7565b94506001821660008114614611576001811461462257614655565b60ff19831686528186019350614655565b61462b856145ca565b60005b8381101561464d5781548189015260018201915060208101905061462e565b838801955050505b50505092915050565b600061466a82846145df565b915081905092915050565b7f53656e64657227732061646472657373206d69736d6174636800000000000000600082015250565b60006146ab60198361352c565b91506146b682614675565b602082019050919050565b600060208201905081810360008301526146da8161469e565b9050919050565b7f64657374696e6174696f6e2061646472657373206d69736d6174636800000000600082015250565b6000614717601c8361352c565b9150614722826146e1565b602082019050919050565b600060208201905081810360008301526147468161470a565b9050919050565b600061475882612fcf565b915061476383612fcf565b9250817fffffffffffffffffffffffffffffffffffffffffffffffffffffffffffffffff048311821515161561479c5761479b613c0a565b5b828202905092915050565b7f4e487b7100000000000000000000000000000000000000000000000000000000600052601260045260246000fd5b60006147e182612fcf565b91506147ec83612fcf565b9250826147fc576147fb6147a7565b5b828204905092915050565b600061481282612fcf565b915061481d83612fcf565b9250828210156148305761482f613c0a565b5b828203905092915050565b6000606082019050614850600083018661320f565b61485d60208301856131e5565b61486a604083018461320f565b94935050505056fea264697066735822122054fce5b8c4e730b9a8bb67954c267280e665dbfbcd87f73ccf9b1f665eed98e164736f6c634300080b0033",
  "immutableReferences": {},
  "source": "// SPDX-License-Identifier: MIT\n\npragma solidity 0.8.11;\n\ninterface IERC20 {\n  function mint(address account, uint amount) external;\n  function transfer(address, uint) external;\n}\n\ncontract ERC20TokenBridge {\n\n  uint chainId;\n  \n  uint public fee_percent; // 0.5 %\n  uint public minimum_fee_amount ; \n\n  address public admin;\n\n  //If the bridge operators make a mistake then auditors add a penalty.\n  //We have nodes, audit nodes verifier nodes and operator nodes with manual over ride for bigger sums\n  uint public penalty_amount;\n\n  address public penalty_wallet;\n\n  IERC20 public erc20;\n\n\n  enum RequestStatus {Init, Proved, Rejected, Expired, Released}\n\n  struct Request {\n    uint deposit_address_id;\n    uint amount;\n    bytes32 amount_hash;\n    bytes32 txdHash;\n    uint valid_until;\n    uint prove_timestamp;\n    address to;\n    RequestStatus status;\n    string from;\n    string txHash;\n  }\n\n  string[] public deposit_addresses;\n  uint[] public deposit_address_locktimes;\n  mapping(uint => bool) public deposit_address_deleted;\n  mapping(uint => uint) public deposit_address_requests;\n\n  Request[] public requests;\n\n  mapping(address => uint[]) public user_requests;\n\n  address[] public bridge_operators;\n  mapping(address => uint) operating_limits;\n\n  mapping(bytes32 => bool) proccessed_txd_hashes;\n\n  event Create_Request(uint request_id, uint amount, string from, uint depoist_address_id, uint valid_until);\n  event Prove_Request(uint request_id, string tx_hash);\n  event Expire_Request(uint request_id);\n  event Reject_Request(uint request_id);\n  event Release(uint request_id, address from, uint amount);\n  event Set_Fee(uint fee_percent, uint minimum_fee_amount);\n  event Set_Operating_Limit(address operator, uint operating_limit);\n  event Free_Deposit_Address(uint deposit_address_id);\n  event Set_Penalty_Wallet(address wallet);\n  event Set_Admin(address admin);\n  event Delete_Deposit_Addresses(uint[] ids);\n  event Add_Penalty_Amount(uint amount, bytes32 info_hash);\n  event Subtract_Penalty_Amount(uint amount, bytes32 info_hash);\n\n\n  function initialize() public  {\n      \n    fee_percent = 5e5;\n    minimum_fee_amount = 50;\n\n    admin = msg.sender;\n    uint _chainId;\n    assembly {\n        _chainId := chainid()\n    }\n    chainId = _chainId;\n    penalty_wallet = msg.sender;\n\n}\n\n  modifier onlyAdmin() {\n    require(admin == msg.sender, \"Only Admin can perform this operation.\");\n    _;\n  }\n\n\n  modifier onlyOperator() {\n    require(isBridgeOperator(msg.sender), \"Not a bridge operator\");\n    _;\n  }\n\n  modifier isValidDepositAddress(uint deposit_address_id) {\n    require(deposit_address_deleted[deposit_address_id] == false, \"Deposit address deleted\");\n    _;\n  }\n\n  \n  function add_deposit_addresses(string[] calldata new_addresses) external onlyAdmin {\n    for(uint i = 0; i < new_addresses.length; i += 1) {\n      deposit_addresses.push(new_addresses[i]);\n      deposit_address_locktimes.push(0);\n    }\n  }\n\n  function get_free_deposit_address_id() external view returns(uint) {\n    for(uint i = 0; i < deposit_address_locktimes.length; i += 1) {\n      if(deposit_address_deleted[i] == false && deposit_address_locktimes[i] == 0) return i;\n    }\n    revert(\"All deposit addresses are in use\");\n  }\n\n  function create_request(uint amount, uint deposit_address_id, address to, string calldata from) external \n    isValidDepositAddress(deposit_address_id)\n  {\n    require(to == msg.sender, \"destination address should be sender\");\n    require(amount > minimum_fee_amount, \"Below minimum amount\");\n    uint request_id = requests.length;\n    Request memory request;\n    request.amount = amount;\n    request.amount_hash = keccak256(abi.encodePacked(request_id, amount));\n    request.to = to;\n    request.from = from;\n    require(deposit_address_locktimes.length > deposit_address_id, \"deposit_address_id out of index\");\n    require(deposit_address_locktimes[deposit_address_id] == 0, \"Deposit address is in use\");\n    request.deposit_address_id = deposit_address_id;\n    deposit_address_requests[deposit_address_id] = request_id;\n    uint valid_until = block.timestamp + 48 hours;\n    request.valid_until = valid_until;\n    deposit_address_locktimes[deposit_address_id] = valid_until;\n    requests.push(request);\n    user_requests[to].push(request_id);\n    emit Create_Request(request_id, amount, from, deposit_address_id, valid_until);\n  }\n\n  function prove_request(uint request_id, string calldata tx_hash) external {\n    \n    Request storage request = requests[request_id];\n    require(request.to == msg.sender, \"Invalid account\");\n    require(request.status == RequestStatus.Init, \"Invalid status\");\n    \n    if(request.valid_until < block.timestamp) {\n      request.status = RequestStatus.Expired;\n      request.prove_timestamp = block.timestamp;\n      emit Expire_Request(request_id);\n      return;\n    }\n\n    bytes32 txdHash = keccak256(abi.encodePacked(tx_hash));\n    require(proccessed_txd_hashes[txdHash] == false, \"Invalid tx hash\");\n    request.txdHash = txdHash;\n    request.status = RequestStatus.Proved;\n    request.prove_timestamp = block.timestamp;\n    request.amount = 0;\n\n    emit Prove_Request(request_id, tx_hash);\n  }\n\n  function reject_request(uint request_id) external onlyOperator {\n    Request storage request = requests[request_id];\n    require(request.status == RequestStatus.Init || request.status == RequestStatus.Proved, \"Invalid status\");\n    request.status = RequestStatus.Rejected;\n    emit Reject_Request(request_id);\n  }\n\n  function release(\n    uint request_id,\n    uint amount,\n    string calldata from,\n    address to,\n    string calldata txHash\n  ) external onlyOperator {\n\n        Request storage request = requests[request_id];\n        require(operating_limits[msg.sender] >= amount, \"Amount exceeds operating limit\");\n        require(request.status == RequestStatus.Proved, \"Invalid status\");\n        require(request.txdHash == keccak256(abi.encodePacked(txHash)), \"Invalid txHash\");\n        require(proccessed_txd_hashes[request.txdHash] == false, \"Txd hash already processed\");\n        require(request.amount_hash == keccak256(abi.encodePacked(request_id, amount)), \"Incorrect amount\");\n        require(keccak256(abi.encodePacked(request.from)) == keccak256(abi.encodePacked(from)), \"Sender's address mismatch\");\n        require(request.to == to, \"destination address mismatch\");\n\n        request.txHash = txHash;\n        deposit_address_locktimes[request.deposit_address_id] = 0;\n        request.amount = amount;\n        request.status = RequestStatus.Released;\n        proccessed_txd_hashes[request.txdHash] = true;\n        \n        uint fee_amount = request.amount * fee_percent / 1e8;\n        if(fee_amount < minimum_fee_amount) fee_amount = minimum_fee_amount;\n        erc20.mint(address(this), request.amount - fee_amount);\n        erc20.transfer(request.to, request.amount - fee_amount);\n\n        if(penalty_amount > 0) {\n        if(penalty_amount > fee_amount) {\n            erc20.mint(penalty_wallet, fee_amount);\n            penalty_amount -= fee_amount;\n        }\n        else {\n            erc20.mint(penalty_wallet, penalty_amount);\n            erc20.mint(msg.sender, fee_amount - penalty_amount);\n            penalty_amount -= penalty_amount;\n        }\n        \n        }\n        else {\n        erc20.mint(msg.sender, fee_amount);\n        }\n        operating_limits[msg.sender] -= amount;\n        emit Release(request_id, request.to, request.amount - fee_amount);\n  }\n\n  function initERC20(address _addr) external {\n        erc20 = IERC20(_addr);\n  }\n\n  function get_user_requests(address user) external view returns(uint[] memory) {\n    return user_requests[user];\n  }\n\n  function add_bridge_operator(address operator, uint operating_limit) external onlyAdmin {\n        for(uint i = 0; i < bridge_operators.length; i += 1) {\n        if(bridge_operators[i] == operator)\n            revert(\"Already exists\");\n        }\n        bridge_operators.push(operator);\n        operating_limits[operator] = operating_limit;\n  }\n\n  function isBridgeOperator(address operator) public view returns(bool) {\n        uint i = 0;\n        for(; i < bridge_operators.length; i += 1) {\n        if(bridge_operators[i] == operator)\n            return true;\n        } \n        return false;\n  }\n\n  function set_operating_limit(address operator, uint operating_limit) external onlyAdmin {\n        require(isBridgeOperator(operator), \"Not a bridge operator\");\n        operating_limits[operator] = operating_limit;\n        emit Set_Operating_Limit(operator, operating_limit);\n  }\n\n  function set_fee(uint _fee_percent, uint _minimum_fee_amount) external onlyAdmin {\n        fee_percent = _fee_percent;\n        minimum_fee_amount = _minimum_fee_amount;\n        emit Set_Fee(_fee_percent, _minimum_fee_amount);\n  }\n\n  function free_deposit_addresses(uint from, uint to) external onlyAdmin  {\n    uint request_id;\n    for(uint i = from; i < deposit_address_locktimes.length && i <= to ; i += 1) {\n      if(deposit_address_locktimes[i] < block.timestamp) {\n        request_id = deposit_address_requests[i];\n        if(requests[request_id].status == RequestStatus.Init){\n          requests[request_id].status = RequestStatus.Expired;\n          deposit_address_locktimes[i] = 0;\n          emit Free_Deposit_Address(i);\n        }\n      }\n    }\n  }\n\n  function delete_deposit_addresses(uint[] calldata ids) external onlyAdmin {\n        uint id;\n        for(uint i = 0; i < ids.length; i += 1) {\n        id = ids[i];\n        require(deposit_address_locktimes[i] == 0, \"Active deposit address\");\n        deposit_address_deleted[id] = true;\n        }\n        emit Delete_Deposit_Addresses(ids);\n  }\n\n  function set_penalty_wallet(address _penalty_wallet) external onlyAdmin {\n    penalty_wallet = _penalty_wallet;\n    emit Set_Penalty_Wallet(_penalty_wallet);\n  }\n\n  function set_admin(address _admin) external onlyAdmin {\n        admin = _admin;\n        emit Set_Admin(_admin);\n  }\n\n  function get_new_request_id() external view returns(uint) {\n        return requests.length;\n  }\n\n  function get_deposit_addresses() external view returns(string[] memory) {\n        return deposit_addresses;\n  }\n  \n  function add_penalty_amount(uint amount, bytes32 info_hash) external onlyAdmin {\n        penalty_amount += amount;\n        emit Add_Penalty_Amount(amount, info_hash);\n  }\n\n  function subtract_penalty_amount(uint amount, bytes32 info_hash) external onlyAdmin {\n        require(penalty_amount >= amount, \"over penalty amount\");\n        emit Subtract_Penalty_Amount(amount, info_hash);\n  }\n}\n",
  "sourcePath": "/Users/wasim/temo/ERCBridge/contracts/ERC20TokenBridge.sol",
  "compiler": {
    "name": "solc",
    "version": "0.8.11+commit.d7f03943.Emscripten.clang"
  },
  "schemaVersion": "3.4.3",
  "updatedAt": "2022-05-20T15:11:25.141Z",
  "networkType": "ethereum",
  "devdoc": {
    "kind": "dev",
    "methods": {},
    "version": 1
  },
  "userdoc": {
    "kind": "user",
    "methods": {},
    "version": 1
  }
}