{
  "contractName": "JxnERC20Bridge",
  "abi": [
    {
      "inputs": [
        {
          "internalType": "address",
          "name": "erc20addr",
          "type": "address"
        }
      ],
      "stateMutability": "nonpayable",
      "type": "constructor"
    },
    {
      "anonymous": false,
      "inputs": [
        {
          "indexed": false,
          "internalType": "uint256",
          "name": "amount",
          "type": "uint256"
        },
        {
          "indexed": false,
          "internalType": "bytes32",
          "name": "info_hash",
          "type": "bytes32"
        }
      ],
      "name": "Add_Penalty_Amount",
      "type": "event"
    },
    {
      "anonymous": false,
      "inputs": [
        {
          "indexed": false,
          "internalType": "uint256",
          "name": "request_id",
          "type": "uint256"
        },
        {
          "indexed": false,
          "internalType": "uint256",
          "name": "amount",
          "type": "uint256"
        },
        {
          "indexed": false,
          "internalType": "string",
          "name": "from",
          "type": "string"
        },
        {
          "indexed": false,
          "internalType": "uint256",
          "name": "depoist_address_id",
          "type": "uint256"
        },
        {
          "indexed": false,
          "internalType": "uint256",
          "name": "valid_until",
          "type": "uint256"
        }
      ],
      "name": "Create_Request",
      "type": "event"
    },
    {
      "anonymous": false,
      "inputs": [
        {
          "indexed": false,
          "internalType": "uint256[]",
          "name": "ids",
          "type": "uint256[]"
        }
      ],
      "name": "Delete_Deposit_Addresses",
      "type": "event"
    },
    {
      "anonymous": false,
      "inputs": [
        {
          "indexed": false,
          "internalType": "uint256",
          "name": "request_id",
          "type": "uint256"
        }
      ],
      "name": "Expire_Request",
      "type": "event"
    },
    {
      "anonymous": false,
      "inputs": [
        {
          "indexed": false,
          "internalType": "uint256",
          "name": "deposit_address_id",
          "type": "uint256"
        }
      ],
      "name": "Free_Deposit_Address",
      "type": "event"
    },
    {
      "anonymous": false,
      "inputs": [
        {
          "indexed": false,
          "internalType": "uint256",
          "name": "request_id",
          "type": "uint256"
        },
        {
          "indexed": false,
          "internalType": "string",
          "name": "tx_hash",
          "type": "string"
        }
      ],
      "name": "Prove_Request",
      "type": "event"
    },
    {
      "anonymous": false,
      "inputs": [
        {
          "indexed": false,
          "internalType": "uint256",
          "name": "request_id",
          "type": "uint256"
        }
      ],
      "name": "Reject_Request",
      "type": "event"
    },
    {
      "anonymous": false,
      "inputs": [
        {
          "indexed": false,
          "internalType": "uint256",
          "name": "request_id",
          "type": "uint256"
        },
        {
          "indexed": false,
          "internalType": "address",
          "name": "from",
          "type": "address"
        },
        {
          "indexed": false,
          "internalType": "uint256",
          "name": "amount",
          "type": "uint256"
        }
      ],
      "name": "Release",
      "type": "event"
    },
    {
      "anonymous": false,
      "inputs": [
        {
          "indexed": false,
          "internalType": "address",
          "name": "admin",
          "type": "address"
        }
      ],
      "name": "Set_Admin",
      "type": "event"
    },
    {
      "anonymous": false,
      "inputs": [
        {
          "indexed": false,
          "internalType": "uint256",
          "name": "fee_percent",
          "type": "uint256"
        },
        {
          "indexed": false,
          "internalType": "uint256",
          "name": "minimum_fee_amount",
          "type": "uint256"
        }
      ],
      "name": "Set_Fee",
      "type": "event"
    },
    {
      "anonymous": false,
      "inputs": [
        {
          "indexed": false,
          "internalType": "address",
          "name": "operator",
          "type": "address"
        },
        {
          "indexed": false,
          "internalType": "uint256",
          "name": "operating_limit",
          "type": "uint256"
        }
      ],
      "name": "Set_Operating_Limit",
      "type": "event"
    },
    {
      "anonymous": false,
      "inputs": [
        {
          "indexed": false,
          "internalType": "address",
          "name": "wallet",
          "type": "address"
        }
      ],
      "name": "Set_Penalty_Wallet",
      "type": "event"
    },
    {
      "anonymous": false,
      "inputs": [
        {
          "indexed": false,
          "internalType": "uint256",
          "name": "amount",
          "type": "uint256"
        },
        {
          "indexed": false,
          "internalType": "bytes32",
          "name": "info_hash",
          "type": "bytes32"
        }
      ],
      "name": "Subtract_Penalty_Amount",
      "type": "event"
    },
    {
      "inputs": [],
      "name": "admin",
      "outputs": [
        {
          "internalType": "address",
          "name": "",
          "type": "address"
        }
      ],
      "stateMutability": "view",
      "type": "function"
    },
    {
      "inputs": [
        {
          "internalType": "uint256",
          "name": "",
          "type": "uint256"
        }
      ],
      "name": "bridge_operators",
      "outputs": [
        {
          "internalType": "address",
          "name": "",
          "type": "address"
        }
      ],
      "stateMutability": "view",
      "type": "function"
    },
    {
      "inputs": [
        {
          "internalType": "uint256",
          "name": "",
          "type": "uint256"
        }
      ],
      "name": "deposit_address_deleted",
      "outputs": [
        {
          "internalType": "bool",
          "name": "",
          "type": "bool"
        }
      ],
      "stateMutability": "view",
      "type": "function"
    },
    {
      "inputs": [
        {
          "internalType": "uint256",
          "name": "",
          "type": "uint256"
        }
      ],
      "name": "deposit_address_locktimes",
      "outputs": [
        {
          "internalType": "uint256",
          "name": "",
          "type": "uint256"
        }
      ],
      "stateMutability": "view",
      "type": "function"
    },
    {
      "inputs": [
        {
          "internalType": "uint256",
          "name": "",
          "type": "uint256"
        }
      ],
      "name": "deposit_address_requests",
      "outputs": [
        {
          "internalType": "uint256",
          "name": "",
          "type": "uint256"
        }
      ],
      "stateMutability": "view",
      "type": "function"
    },
    {
      "inputs": [
        {
          "internalType": "uint256",
          "name": "",
          "type": "uint256"
        }
      ],
      "name": "deposit_addresses",
      "outputs": [
        {
          "internalType": "string",
          "name": "",
          "type": "string"
        }
      ],
      "stateMutability": "view",
      "type": "function"
    },
    {
      "inputs": [],
      "name": "erc20",
      "outputs": [
        {
          "internalType": "contract IERC20",
          "name": "",
          "type": "address"
        }
      ],
      "stateMutability": "view",
      "type": "function"
    },
    {
      "inputs": [],
      "name": "fee_percent",
      "outputs": [
        {
          "internalType": "uint256",
          "name": "",
          "type": "uint256"
        }
      ],
      "stateMutability": "view",
      "type": "function"
    },
    {
      "inputs": [],
      "name": "minimum_fee_amount",
      "outputs": [
        {
          "internalType": "uint256",
          "name": "",
          "type": "uint256"
        }
      ],
      "stateMutability": "view",
      "type": "function"
    },
    {
      "inputs": [],
      "name": "penalty_amount",
      "outputs": [
        {
          "internalType": "uint256",
          "name": "",
          "type": "uint256"
        }
      ],
      "stateMutability": "view",
      "type": "function"
    },
    {
      "inputs": [],
      "name": "penalty_wallet",
      "outputs": [
        {
          "internalType": "address",
          "name": "",
          "type": "address"
        }
      ],
      "stateMutability": "view",
      "type": "function"
    },
    {
      "inputs": [
        {
          "internalType": "uint256",
          "name": "",
          "type": "uint256"
        }
      ],
      "name": "requests",
      "outputs": [
        {
          "internalType": "uint256",
          "name": "deposit_address_id",
          "type": "uint256"
        },
        {
          "internalType": "uint256",
          "name": "amount",
          "type": "uint256"
        },
        {
          "internalType": "bytes32",
          "name": "amount_hash",
          "type": "bytes32"
        },
        {
          "internalType": "bytes32",
          "name": "txdHash",
          "type": "bytes32"
        },
        {
          "internalType": "uint256",
          "name": "valid_until",
          "type": "uint256"
        },
        {
          "internalType": "uint256",
          "name": "prove_timestamp",
          "type": "uint256"
        },
        {
          "internalType": "address",
          "name": "to",
          "type": "address"
        },
        {
          "internalType": "enum JxnERC20Bridge.RequestStatus",
          "name": "status",
          "type": "uint8"
        },
        {
          "internalType": "string",
          "name": "from",
          "type": "string"
        },
        {
          "internalType": "string",
          "name": "txHash",
          "type": "string"
        }
      ],
      "stateMutability": "view",
      "type": "function"
    },
    {
      "inputs": [
        {
          "internalType": "address",
          "name": "",
          "type": "address"
        },
        {
          "internalType": "uint256",
          "name": "",
          "type": "uint256"
        }
      ],
      "name": "user_requests",
      "outputs": [
        {
          "internalType": "uint256",
          "name": "",
          "type": "uint256"
        }
      ],
      "stateMutability": "view",
      "type": "function"
    },
    {
      "inputs": [
        {
          "internalType": "string[]",
          "name": "new_addresses",
          "type": "string[]"
        }
      ],
      "name": "add_deposit_addresses",
      "outputs": [],
      "stateMutability": "nonpayable",
      "type": "function"
    },
    {
      "inputs": [],
      "name": "get_free_deposit_address_id",
      "outputs": [
        {
          "internalType": "uint256",
          "name": "",
          "type": "uint256"
        }
      ],
      "stateMutability": "view",
      "type": "function"
    },
    {
      "inputs": [
        {
          "internalType": "uint256",
          "name": "amount",
          "type": "uint256"
        },
        {
          "internalType": "uint256",
          "name": "deposit_address_id",
          "type": "uint256"
        },
        {
          "internalType": "address",
          "name": "to",
          "type": "address"
        },
        {
          "internalType": "string",
          "name": "from",
          "type": "string"
        }
      ],
      "name": "create_request",
      "outputs": [],
      "stateMutability": "nonpayable",
      "type": "function"
    },
    {
      "inputs": [
        {
          "internalType": "uint256",
          "name": "request_id",
          "type": "uint256"
        },
        {
          "internalType": "string",
          "name": "tx_hash",
          "type": "string"
        }
      ],
      "name": "prove_request",
      "outputs": [],
      "stateMutability": "nonpayable",
      "type": "function"
    },
    {
      "inputs": [
        {
          "internalType": "uint256",
          "name": "request_id",
          "type": "uint256"
        }
      ],
      "name": "reject_request",
      "outputs": [],
      "stateMutability": "nonpayable",
      "type": "function"
    },
    {
      "inputs": [
        {
          "internalType": "uint256",
          "name": "request_id",
          "type": "uint256"
        },
        {
          "internalType": "uint256",
          "name": "amount",
          "type": "uint256"
        },
        {
          "internalType": "string",
          "name": "from",
          "type": "string"
        },
        {
          "internalType": "address",
          "name": "to",
          "type": "address"
        },
        {
          "internalType": "string",
          "name": "txHash",
          "type": "string"
        }
      ],
      "name": "release",
      "outputs": [],
      "stateMutability": "nonpayable",
      "type": "function"
    },
    {
      "inputs": [
        {
          "internalType": "address",
          "name": "user",
          "type": "address"
        }
      ],
      "name": "get_user_requests",
      "outputs": [
        {
          "internalType": "uint256[]",
          "name": "",
          "type": "uint256[]"
        }
      ],
      "stateMutability": "view",
      "type": "function"
    },
    {
      "inputs": [
        {
          "internalType": "address",
          "name": "operator",
          "type": "address"
        },
        {
          "internalType": "uint256",
          "name": "operating_limit",
          "type": "uint256"
        }
      ],
      "name": "add_bridge_operator",
      "outputs": [],
      "stateMutability": "nonpayable",
      "type": "function"
    },
    {
      "inputs": [
        {
          "internalType": "address",
          "name": "operator",
          "type": "address"
        }
      ],
      "name": "isBridgeOperator",
      "outputs": [
        {
          "internalType": "bool",
          "name": "",
          "type": "bool"
        }
      ],
      "stateMutability": "view",
      "type": "function"
    },
    {
      "inputs": [
        {
          "internalType": "address",
          "name": "operator",
          "type": "address"
        },
        {
          "internalType": "uint256",
          "name": "operating_limit",
          "type": "uint256"
        }
      ],
      "name": "set_operating_limit",
      "outputs": [],
      "stateMutability": "nonpayable",
      "type": "function"
    },
    {
      "inputs": [
        {
          "internalType": "uint256",
          "name": "_fee_percent",
          "type": "uint256"
        },
        {
          "internalType": "uint256",
          "name": "_minimum_fee_amount",
          "type": "uint256"
        }
      ],
      "name": "set_fee",
      "outputs": [],
      "stateMutability": "nonpayable",
      "type": "function"
    },
    {
      "inputs": [
        {
          "internalType": "uint256",
          "name": "from",
          "type": "uint256"
        },
        {
          "internalType": "uint256",
          "name": "to",
          "type": "uint256"
        }
      ],
      "name": "free_deposit_addresses",
      "outputs": [],
      "stateMutability": "nonpayable",
      "type": "function"
    },
    {
      "inputs": [
        {
          "internalType": "uint256[]",
          "name": "ids",
          "type": "uint256[]"
        }
      ],
      "name": "delete_deposit_addresses",
      "outputs": [],
      "stateMutability": "nonpayable",
      "type": "function"
    },
    {
      "inputs": [
        {
          "internalType": "address",
          "name": "_penalty_wallet",
          "type": "address"
        }
      ],
      "name": "set_penalty_wallet",
      "outputs": [],
      "stateMutability": "nonpayable",
      "type": "function"
    },
    {
      "inputs": [
        {
          "internalType": "address",
          "name": "_admin",
          "type": "address"
        }
      ],
      "name": "set_admin",
      "outputs": [],
      "stateMutability": "nonpayable",
      "type": "function"
    },
    {
      "inputs": [],
      "name": "get_new_request_id",
      "outputs": [
        {
          "internalType": "uint256",
          "name": "",
          "type": "uint256"
        }
      ],
      "stateMutability": "view",
      "type": "function"
    },
    {
      "inputs": [],
      "name": "get_deposit_addresses",
      "outputs": [
        {
          "internalType": "string[]",
          "name": "",
          "type": "string[]"
        }
      ],
      "stateMutability": "view",
      "type": "function"
    },
    {
      "inputs": [
        {
          "internalType": "uint256",
          "name": "amount",
          "type": "uint256"
        },
        {
          "internalType": "bytes32",
          "name": "info_hash",
          "type": "bytes32"
        }
      ],
      "name": "add_penalty_amount",
      "outputs": [],
      "stateMutability": "nonpayable",
      "type": "function"
    },
    {
      "inputs": [
        {
          "internalType": "uint256",
          "name": "amount",
          "type": "uint256"
        },
        {
          "internalType": "bytes32",
          "name": "info_hash",
          "type": "bytes32"
        }
      ],
      "name": "subtract_penalty_amount",
      "outputs": [],
      "stateMutability": "nonpayable",
      "type": "function"
    }
  ],
  "bytecode": "0x60806040526207a120600155603260025560006004553480156200002257600080fd5b506040516200495038038062004950833981810160405281019062000048919062000189565b80600660006101000a81548173ffffffffffffffffffffffffffffffffffffffff021916908373ffffffffffffffffffffffffffffffffffffffff16021790555033600360006101000a81548173ffffffffffffffffffffffffffffffffffffffff021916908373ffffffffffffffffffffffffffffffffffffffff16021790555060004690508060008190555033600560006101000a81548173ffffffffffffffffffffffffffffffffffffffff021916908373ffffffffffffffffffffffffffffffffffffffff1602179055505050620001bb565b600080fd5b600073ffffffffffffffffffffffffffffffffffffffff82169050919050565b6000620001518262000124565b9050919050565b620001638162000144565b81146200016f57600080fd5b50565b600081519050620001838162000158565b92915050565b600060208284031215620001a257620001a16200011f565b5b6000620001b28482850162000172565b91505092915050565b61478580620001cb6000396000f3fe608060405234801561001057600080fd5b50600436106101f05760003560e01c8063958fdb661161010f578063c8cee486116100a2578063eeb5578311610071578063eeb55783146105bc578063f71db70a146105ec578063f851a4401461060a578063fef4e4ac14610628576101f0565b8063c8cee48614610536578063d6af11f914610552578063e81f833514610582578063e9333fab146105a0576101f0565b8063b0d233a4116100de578063b0d233a41461049e578063b405aaf2146104ba578063c54a2f06146104ea578063c5f81a791461051a576101f0565b8063958fdb661461041a5780639b08420814610436578063a0102a9314610452578063a79110c714610482576101f0565b80635b12834d116101875780636ba9ec0a116101565780636ba9ec0a14610389578063785e9e86146103a757806381d12c58146103c55780638e686061146103fe576101f0565b80635b12834d146102ef5780635e3915291461030b578063657b16521461033b5780636ab0737c1461036b576101f0565b80634bc0cf9b116101c35780634bc0cf9b146102655780634c3119a1146102835780634ff2cc44146102a1578063551f4538146102bf576101f0565b80630d1537fe146101f557806329c887c6146102115780633829f18f1461022d5780633cd905d314610249575b600080fd5b61020f600480360381019061020a9190612ee2565b610644565b005b61022b60048036038101906102269190612f74565b6107d2565b005b6102476004803603810190610242919061301f565b610914565b005b610263600480360381019061025e9190613082565b610a1f565b005b61026d610b05565b60405161027a91906130d1565b60405180910390f35b61028b610b2b565b60405161029891906130fb565b60405180910390f35b6102a9610b31565b6040516102b691906130fb565b60405180910390f35b6102d960048036038101906102d49190612ee2565b610b37565b6040516102e691906130fb565b60405180910390f35b61030960048036038101906103049190613116565b610b5b565b005b61032560048036038101906103209190612ee2565b610cb4565b6040516103329190613171565b60405180910390f35b61035560048036038101906103509190612ee2565b610cd4565b60405161036291906130fb565b60405180910390f35b610373610cec565b60405161038091906132e7565b60405180910390f35b610391610dc5565b60405161039e91906130fb565b60405180910390f35b6103af610dcb565b6040516103bc9190613368565b60405180910390f35b6103df60048036038101906103da9190612ee2565b610df1565b6040516103f59a99989796959493929190613453565b60405180910390f35b61041860048036038101906104139190613082565b610f92565b005b610434600480360381019061042f9190613553565b6110a4565b005b610450600480360381019061044b9190613116565b611243565b005b61046c60048036038101906104679190613116565b611450565b60405161047991906130fb565b60405180910390f35b61049c600480360381019061049791906135f6565b611481565b005b6104b860048036038101906104b3919061367e565b611948565b005b6104d460048036038101906104cf919061301f565b611a23565b6040516104e19190613171565b60405180910390f35b61050460048036038101906104ff9190612ee2565b611ad3565b60405161051191906136be565b60405180910390f35b610534600480360381019061052f919061367e565b611b7f565b005b610550600480360381019061054b91906136e0565b611d8f565b005b61056c60048036038101906105679190612ee2565b61205e565b60405161057991906130d1565b60405180910390f35b61058a61209d565b60405161059791906130fb565b60405180910390f35b6105ba60048036038101906105b5919061301f565b612165565b005b6105d660048036038101906105d1919061301f565b612270565b6040516105e391906137fe565b60405180910390f35b6105f4612307565b60405161060191906130fb565b60405180910390f35b610612612314565b60405161061f91906130d1565b60405180910390f35b610642600480360381019061063d9190613820565b61233a565b005b61064d33611a23565b61068c576040517f08c379a000000000000000000000000000000000000000000000000000000000815260040161068390613928565b60405180910390fd5b6000600b82815481106106a2576106a1613948565b5b90600052602060002090600902019050600060048111156106c6576106c5613392565b5b8160060160149054906101000a900460ff1660048111156106ea576106e9613392565b5b148061072b57506001600481111561070557610704613392565b5b8160060160149054906101000a900460ff16600481111561072957610728613392565b5b145b61076a576040517f08c379a0000000000000000000000000000000000000000000000000000000008152600401610761906139c3565b60405180910390fd5b60028160060160146101000a81548160ff0219169083600481111561079257610791613392565b5b02179055507f4385313fd34af3088de23168385fb10ffe3634d075102986ababf235c9bc9c83826040516107c691906130fb565b60405180910390a15050565b3373ffffffffffffffffffffffffffffffffffffffff16600360009054906101000a900473ffffffffffffffffffffffffffffffffffffffff1673ffffffffffffffffffffffffffffffffffffffff1614610862576040517f08c379a000000000000000000000000000000000000000000000000000000000815260040161085990613a55565b60405180910390fd5b60005b8282905081101561090f57600783838381811061088557610884613948565b5b90506020028101906108979190613a84565b909180600181540180825580915050600190039060005260206000200160009091929091929091929091925091906108d0929190612cf8565b506008600090806001815401808255809150506001900390600052602060002001600090919091909150556001816109089190613b16565b9050610865565b505050565b3373ffffffffffffffffffffffffffffffffffffffff16600360009054906101000a900473ffffffffffffffffffffffffffffffffffffffff1673ffffffffffffffffffffffffffffffffffffffff16146109a4576040517f08c379a000000000000000000000000000000000000000000000000000000000815260040161099b90613a55565b60405180910390fd5b80600560006101000a81548173ffffffffffffffffffffffffffffffffffffffff021916908373ffffffffffffffffffffffffffffffffffffffff1602179055507fe1155384f4b10de8a253ca82beb755ba60a1daf35520d2109325babc3d4bd97a81604051610a1491906130d1565b60405180910390a150565b3373ffffffffffffffffffffffffffffffffffffffff16600360009054906101000a900473ffffffffffffffffffffffffffffffffffffffff1673ffffffffffffffffffffffffffffffffffffffff1614610aaf576040517f08c379a0000000000000000000000000000000000000000000000000000000008152600401610aa690613a55565b60405180910390fd5b8160046000828254610ac19190613b16565b925050819055507fb0e836199bdca2667de92af2ca76439a97e64d1d347e7ac1c14ea8114803ca428282604051610af9929190613b6c565b60405180910390a15050565b600560009054906101000a900473ffffffffffffffffffffffffffffffffffffffff1681565b60045481565b60015481565b60088181548110610b4757600080fd5b906000526020600020016000915090505481565b3373ffffffffffffffffffffffffffffffffffffffff16600360009054906101000a900473ffffffffffffffffffffffffffffffffffffffff1673ffffffffffffffffffffffffffffffffffffffff1614610beb576040517f08c379a0000000000000000000000000000000000000000000000000000000008152600401610be290613a55565b60405180910390fd5b610bf482611a23565b610c33576040517f08c379a0000000000000000000000000000000000000000000000000000000008152600401610c2a90613928565b60405180910390fd5b80600e60008473ffffffffffffffffffffffffffffffffffffffff1673ffffffffffffffffffffffffffffffffffffffff168152602001908152602001600020819055507f9156b7e2901a6aa60c38caca735100468a7aed42840592331705c3492b83f3b18282604051610ca8929190613b95565b60405180910390a15050565b60096020528060005260406000206000915054906101000a900460ff1681565b600a6020528060005260406000206000915090505481565b60606007805480602002602001604051908101604052809291908181526020016000905b82821015610dbc578382906000526020600020018054610d2f90613bed565b80601f0160208091040260200160405190810160405280929190818152602001828054610d5b90613bed565b8015610da85780601f10610d7d57610100808354040283529160200191610da8565b820191906000526020600020905b815481529060010190602001808311610d8b57829003601f168201915b505050505081526020019060010190610d10565b50505050905090565b60025481565b600660009054906101000a900473ffffffffffffffffffffffffffffffffffffffff1681565b600b8181548110610e0157600080fd5b90600052602060002090600902016000915090508060000154908060010154908060020154908060030154908060040154908060050154908060060160009054906101000a900473ffffffffffffffffffffffffffffffffffffffff16908060060160149054906101000a900460ff1690806007018054610e8190613bed565b80601f0160208091040260200160405190810160405280929190818152602001828054610ead90613bed565b8015610efa5780601f10610ecf57610100808354040283529160200191610efa565b820191906000526020600020905b815481529060010190602001808311610edd57829003601f168201915b505050505090806008018054610f0f90613bed565b80601f0160208091040260200160405190810160405280929190818152602001828054610f3b90613bed565b8015610f885780601f10610f5d57610100808354040283529160200191610f88565b820191906000526020600020905b815481529060010190602001808311610f6b57829003601f168201915b505050505090508a565b3373ffffffffffffffffffffffffffffffffffffffff16600360009054906101000a900473ffffffffffffffffffffffffffffffffffffffff1673ffffffffffffffffffffffffffffffffffffffff1614611022576040517f08c379a000000000000000000000000000000000000000000000000000000000815260040161101990613a55565b60405180910390fd5b816004541015611067576040517f08c379a000000000000000000000000000000000000000000000000000000000815260040161105e90613c6b565b60405180910390fd5b7f190f3694e0f5f706c5a0db2760ad19e545f4e31e8503a2990de9c9ab0cdf5b378282604051611098929190613b6c565b60405180910390a15050565b3373ffffffffffffffffffffffffffffffffffffffff16600360009054906101000a900473ffffffffffffffffffffffffffffffffffffffff1673ffffffffffffffffffffffffffffffffffffffff1614611134576040517f08c379a000000000000000000000000000000000000000000000000000000000815260040161112b90613a55565b60405180910390fd5b600080600090505b838390508110156112045783838281811061115a57611159613948565b5b90506020020135915060006008828154811061117957611178613948565b5b9060005260206000200154146111c4576040517f08c379a00000000000000000000000000000000000000000000000000000000081526004016111bb90613cd7565b60405180910390fd5b60016009600084815260200190815260200160002060006101000a81548160ff0219169083151502179055506001816111fd9190613b16565b905061113c565b507f5d29be006420ce1f47905536445c55e0664aaef5e8c82298dbdbf9810aaf21b28383604051611236929190613d67565b60405180910390a1505050565b3373ffffffffffffffffffffffffffffffffffffffff16600360009054906101000a900473ffffffffffffffffffffffffffffffffffffffff1673ffffffffffffffffffffffffffffffffffffffff16146112d3576040517f08c379a00000000000000000000000000000000000000000000000000000000081526004016112ca90613a55565b60405180910390fd5b60005b600d805490508110156113a4578273ffffffffffffffffffffffffffffffffffffffff16600d828154811061130e5761130d613948565b5b9060005260206000200160009054906101000a900473ffffffffffffffffffffffffffffffffffffffff1673ffffffffffffffffffffffffffffffffffffffff161415611390576040517f08c379a000000000000000000000000000000000000000000000000000000000815260040161138790613dd7565b60405180910390fd5b60018161139d9190613b16565b90506112d6565b50600d829080600181540180825580915050600190039060005260206000200160009091909190916101000a81548173ffffffffffffffffffffffffffffffffffffffff021916908373ffffffffffffffffffffffffffffffffffffffff16021790555080600e60008473ffffffffffffffffffffffffffffffffffffffff1673ffffffffffffffffffffffffffffffffffffffff168152602001908152602001600020819055505050565b600c602052816000526040600020818154811061146c57600080fd5b90600052602060002001600091509150505481565b83600015156009600083815260200190815260200160002060009054906101000a900460ff161515146114e9576040517f08c379a00000000000000000000000000000000000000000000000000000000081526004016114e090613e43565b60405180910390fd5b3373ffffffffffffffffffffffffffffffffffffffff168473ffffffffffffffffffffffffffffffffffffffff1614611557576040517f08c379a000000000000000000000000000000000000000000000000000000000815260040161154e90613ed5565b60405180910390fd5b600254861161159b576040517f08c379a000000000000000000000000000000000000000000000000000000000815260040161159290613f41565b60405180910390fd5b6000600b8054905090506115ad612d7e565b8781602001818152505081886040516020016115ca929190613f82565b60405160208183030381529060405280519060200120816040018181525050858160c0019073ffffffffffffffffffffffffffffffffffffffff16908173ffffffffffffffffffffffffffffffffffffffff168152505084848080601f016020809104026020016040519081016040528093929190818152602001838380828437600081840152601f19601f8201169050808301925050505050505081610100018190525086600880549050116116b6576040517f08c379a00000000000000000000000000000000000000000000000000000000081526004016116ad90613ffa565b60405180910390fd5b6000600888815481106116cc576116cb613948565b5b906000526020600020015414611717576040517f08c379a000000000000000000000000000000000000000000000000000000000815260040161170e90614066565b60405180910390fd5b8681600001818152505081600a60008981526020019081526020016000208190555060006202a3004261174a9190613b16565b905080826080018181525050806008898154811061176b5761176a613948565b5b9060005260206000200181905550600b829080600181540180825580915050600190039060005260206000209060090201600090919091909150600082015181600001556020820151816001015560408201518160020155606082015181600301556080820151816004015560a0820151816005015560c08201518160060160006101000a81548173ffffffffffffffffffffffffffffffffffffffff021916908373ffffffffffffffffffffffffffffffffffffffff16021790555060e08201518160060160146101000a81548160ff0219169083600481111561185357611852613392565b5b0217905550610100820151816007019080519060200190611875929190612dff565b50610120820151816008019080519060200190611893929190612dff565b505050600c60008873ffffffffffffffffffffffffffffffffffffffff1673ffffffffffffffffffffffffffffffffffffffff1681526020019081526020016000208390806001815401808255809150506001900390600052602060002001600090919091909150557fbc6c2c45f2fd0d0a5fa98cc0ee057322ec934901319256bc88db2bda88b699b4838a88888c86604051611935969594939291906140b3565b60405180910390a1505050505050505050565b3373ffffffffffffffffffffffffffffffffffffffff16600360009054906101000a900473ffffffffffffffffffffffffffffffffffffffff1673ffffffffffffffffffffffffffffffffffffffff16146119d8576040517f08c379a00000000000000000000000000000000000000000000000000000000081526004016119cf90613a55565b60405180910390fd5b81600181905550806002819055507f4504b318467fa60cf10fb04c83f2878fe796b000b5158fb22ea57d517d7336b78282604051611a1792919061410f565b60405180910390a15050565b600080600090505b600d80549050811015611ac8578273ffffffffffffffffffffffffffffffffffffffff16600d8281548110611a6357611a62613948565b5b9060005260206000200160009054906101000a900473ffffffffffffffffffffffffffffffffffffffff1673ffffffffffffffffffffffffffffffffffffffff161415611ab4576001915050611ace565b600181611ac19190613b16565b9050611a2b565b60009150505b919050565b60078181548110611ae357600080fd5b906000526020600020016000915090508054611afe90613bed565b80601f0160208091040260200160405190810160405280929190818152602001828054611b2a90613bed565b8015611b775780601f10611b4c57610100808354040283529160200191611b77565b820191906000526020600020905b815481529060010190602001808311611b5a57829003601f168201915b505050505081565b3373ffffffffffffffffffffffffffffffffffffffff16600360009054906101000a900473ffffffffffffffffffffffffffffffffffffffff1673ffffffffffffffffffffffffffffffffffffffff1614611c0f576040517f08c379a0000000000000000000000000000000000000000000000000000000008152600401611c0690613a55565b60405180910390fd5b6000808390505b60088054905081108015611c2a5750828111155b15611d89574260088281548110611c4457611c43613948565b5b90600052602060002001541015611d7557600a600082815260200190815260200160002054915060006004811115611c7f57611c7e613392565b5b600b8381548110611c9357611c92613948565b5b906000526020600020906009020160060160149054906101000a900460ff166004811115611cc457611cc3613392565b5b1415611d74576003600b8381548110611ce057611cdf613948565b5b906000526020600020906009020160060160146101000a81548160ff02191690836004811115611d1357611d12613392565b5b0217905550600060088281548110611d2e57611d2d613948565b5b90600052602060002001819055507fb8ca3e173d502cf9480419edafe6eb4b7050be203e101a7194a73957418673fd81604051611d6b91906130fb565b60405180910390a15b5b600181611d829190613b16565b9050611c16565b50505050565b6000600b8481548110611da557611da4613948565b5b906000526020600020906009020190503373ffffffffffffffffffffffffffffffffffffffff168160060160009054906101000a900473ffffffffffffffffffffffffffffffffffffffff1673ffffffffffffffffffffffffffffffffffffffff1614611e47576040517f08c379a0000000000000000000000000000000000000000000000000000000008152600401611e3e90614184565b60405180910390fd5b60006004811115611e5b57611e5a613392565b5b8160060160149054906101000a900460ff166004811115611e7f57611e7e613392565b5b14611ebf576040517f08c379a0000000000000000000000000000000000000000000000000000000008152600401611eb6906139c3565b60405180910390fd5b4281600401541015611f3e5760038160060160146101000a81548160ff02191690836004811115611ef357611ef2613392565b5b02179055504281600501819055507fb0480cf527111cba6c26fc4e6b1898cbd95838c1d21b05b6fc79ca91b4adfe3284604051611f3091906130fb565b60405180910390a150612059565b60008383604051602001611f539291906141d4565b60405160208183030381529060405280519060200120905060001515600f600083815260200190815260200160002060009054906101000a900460ff16151514611fd2576040517f08c379a0000000000000000000000000000000000000000000000000000000008152600401611fc990614239565b60405180910390fd5b80826003018190555060018260060160146101000a81548160ff0219169083600481111561200357612002613392565b5b0217905550428260050181905550600082600101819055507f2f235f0fdefdadc02d68f238d0c29d531e1d9f11c90877531aac7015b42c6a5885858560405161204e93929190614259565b60405180910390a150505b505050565b600d818154811061206e57600080fd5b906000526020600020016000915054906101000a900473ffffffffffffffffffffffffffffffffffffffff1681565b600080600090505b60088054905081101561212657600015156009600083815260200190815260200160002060009054906101000a900460ff16151514801561210457506000600882815481106120f7576120f6613948565b5b9060005260206000200154145b156121125780915050612162565b60018161211f9190613b16565b90506120a5565b506040517f08c379a0000000000000000000000000000000000000000000000000000000008152600401612159906142d7565b60405180910390fd5b90565b3373ffffffffffffffffffffffffffffffffffffffff16600360009054906101000a900473ffffffffffffffffffffffffffffffffffffffff1673ffffffffffffffffffffffffffffffffffffffff16146121f5576040517f08c379a00000000000000000000000000000000000000000000000000000000081526004016121ec90613a55565b60405180910390fd5b80600360006101000a81548173ffffffffffffffffffffffffffffffffffffffff021916908373ffffffffffffffffffffffffffffffffffffffff1602179055507fa78603a1c7fdf4091156c65e1c33776962ec1d9d753f07346a51a96d6aef39ce8160405161226591906130d1565b60405180910390a150565b6060600c60008373ffffffffffffffffffffffffffffffffffffffff1673ffffffffffffffffffffffffffffffffffffffff1681526020019081526020016000208054806020026020016040519081016040528092919081815260200182805480156122fb57602002820191906000526020600020905b8154815260200190600101908083116122e7575b50505050509050919050565b6000600b80549050905090565b600360009054906101000a900473ffffffffffffffffffffffffffffffffffffffff1681565b61234333611a23565b612382576040517f08c379a000000000000000000000000000000000000000000000000000000000815260040161237990613928565b60405180910390fd5b6000600b888154811061239857612397613948565b5b9060005260206000209060090201905086600e60003373ffffffffffffffffffffffffffffffffffffffff1673ffffffffffffffffffffffffffffffffffffffff16815260200190815260200160002054101561242a576040517f08c379a000000000000000000000000000000000000000000000000000000000815260040161242190614343565b60405180910390fd5b6001600481111561243e5761243d613392565b5b8160060160149054906101000a900460ff16600481111561246257612461613392565b5b146124a2576040517f08c379a0000000000000000000000000000000000000000000000000000000008152600401612499906139c3565b60405180910390fd5b82826040516020016124b59291906141d4565b60405160208183030381529060405280519060200120816003015414612510576040517f08c379a0000000000000000000000000000000000000000000000000000000008152600401612507906143af565b60405180910390fd5b60001515600f60008360030154815260200190815260200160002060009054906101000a900460ff1615151461257b576040517f08c379a00000000000000000000000000000000000000000000000000000000081526004016125729061441b565b60405180910390fd5b878760405160200161258e929190613f82565b604051602081830303815290604052805190602001208160020154146125e9576040517f08c379a00000000000000000000000000000000000000000000000000000000081526004016125e090614487565b60405180910390fd5b85856040516020016125fc9291906141d4565b6040516020818303038152906040528051906020012081600701604051602001612626919061453b565b604051602081830303815290604052805190602001201461267c576040517f08c379a00000000000000000000000000000000000000000000000000000000081526004016126739061459e565b60405180910390fd5b8373ffffffffffffffffffffffffffffffffffffffff168160060160009054906101000a900473ffffffffffffffffffffffffffffffffffffffff1673ffffffffffffffffffffffffffffffffffffffff161461270e576040517f08c379a00000000000000000000000000000000000000000000000000000000081526004016127059061460a565b60405180910390fd5b8282826008019190612721929190612cf8565b506000600882600001548154811061273c5761273b613948565b5b906000526020600020018190555086816001018190555060048160060160146101000a81548160ff0219169083600481111561277b5761277a613392565b5b02179055506001600f60008360030154815260200190815260200160002060006101000a81548160ff02191690831515021790555060006305f5e10060015483600101546127c9919061462a565b6127d391906146b3565b90506002548110156127e55760025490505b600660009054906101000a900473ffffffffffffffffffffffffffffffffffffffff1673ffffffffffffffffffffffffffffffffffffffff166340c10f193083856001015461283491906146e4565b6040518363ffffffff1660e01b8152600401612851929190613b95565b600060405180830381600087803b15801561286b57600080fd5b505af115801561287f573d6000803e3d6000fd5b50505050600660009054906101000a900473ffffffffffffffffffffffffffffffffffffffff1673ffffffffffffffffffffffffffffffffffffffff1663a9059cbb8360060160009054906101000a900473ffffffffffffffffffffffffffffffffffffffff168385600101546128f691906146e4565b6040518363ffffffff1660e01b8152600401612913929190613b95565b600060405180830381600087803b15801561292d57600080fd5b505af1158015612941573d6000803e3d6000fd5b5050505060006004541115612b9957806004541115612a2957600660009054906101000a900473ffffffffffffffffffffffffffffffffffffffff1673ffffffffffffffffffffffffffffffffffffffff166340c10f19600560009054906101000a900473ffffffffffffffffffffffffffffffffffffffff16836040518363ffffffff1660e01b81526004016129d9929190613b95565b600060405180830381600087803b1580156129f357600080fd5b505af1158015612a07573d6000803e3d6000fd5b505050508060046000828254612a1d91906146e4565b92505081905550612b94565b600660009054906101000a900473ffffffffffffffffffffffffffffffffffffffff1673ffffffffffffffffffffffffffffffffffffffff166340c10f19600560009054906101000a900473ffffffffffffffffffffffffffffffffffffffff166004546040518363ffffffff1660e01b8152600401612aaa929190613b95565b600060405180830381600087803b158015612ac457600080fd5b505af1158015612ad8573d6000803e3d6000fd5b50505050600660009054906101000a900473ffffffffffffffffffffffffffffffffffffffff1673ffffffffffffffffffffffffffffffffffffffff166340c10f193360045484612b2991906146e4565b6040518363ffffffff1660e01b8152600401612b46929190613b95565b600060405180830381600087803b158015612b6057600080fd5b505af1158015612b74573d6000803e3d6000fd5b5050505060045460046000828254612b8c91906146e4565b925050819055505b612c29565b600660009054906101000a900473ffffffffffffffffffffffffffffffffffffffff1673ffffffffffffffffffffffffffffffffffffffff166340c10f1933836040518363ffffffff1660e01b8152600401612bf6929190613b95565b600060405180830381600087803b158015612c1057600080fd5b505af1158015612c24573d6000803e3d6000fd5b505050505b87600e60003373ffffffffffffffffffffffffffffffffffffffff1673ffffffffffffffffffffffffffffffffffffffff1681526020019081526020016000206000828254612c7891906146e4565b925050819055507fe332e9963bc980fb82ccd3e7e181d76bddde349eec46b4ba393f3444529cd17f898360060160009054906101000a900473ffffffffffffffffffffffffffffffffffffffff16838560010154612cd691906146e4565b604051612ce593929190614718565b60405180910390a1505050505050505050565b828054612d0490613bed565b90600052602060002090601f016020900481019282612d265760008555612d6d565b82601f10612d3f57803560ff1916838001178555612d6d565b82800160010185558215612d6d579182015b82811115612d6c578235825591602001919060010190612d51565b5b509050612d7a9190612e85565b5090565b604051806101400160405280600081526020016000815260200160008019168152602001600080191681526020016000815260200160008152602001600073ffffffffffffffffffffffffffffffffffffffff16815260200160006004811115612deb57612dea613392565b5b815260200160608152602001606081525090565b828054612e0b90613bed565b90600052602060002090601f016020900481019282612e2d5760008555612e74565b82601f10612e4657805160ff1916838001178555612e74565b82800160010185558215612e74579182015b82811115612e73578251825591602001919060010190612e58565b5b509050612e819190612e85565b5090565b5b80821115612e9e576000816000905550600101612e86565b5090565b600080fd5b600080fd5b6000819050919050565b612ebf81612eac565b8114612eca57600080fd5b50565b600081359050612edc81612eb6565b92915050565b600060208284031215612ef857612ef7612ea2565b5b6000612f0684828501612ecd565b91505092915050565b600080fd5b600080fd5b600080fd5b60008083601f840112612f3457612f33612f0f565b5b8235905067ffffffffffffffff811115612f5157612f50612f14565b5b602083019150836020820283011115612f6d57612f6c612f19565b5b9250929050565b60008060208385031215612f8b57612f8a612ea2565b5b600083013567ffffffffffffffff811115612fa957612fa8612ea7565b5b612fb585828601612f1e565b92509250509250929050565b600073ffffffffffffffffffffffffffffffffffffffff82169050919050565b6000612fec82612fc1565b9050919050565b612ffc81612fe1565b811461300757600080fd5b50565b60008135905061301981612ff3565b92915050565b60006020828403121561303557613034612ea2565b5b60006130438482850161300a565b91505092915050565b6000819050919050565b61305f8161304c565b811461306a57600080fd5b50565b60008135905061307c81613056565b92915050565b6000806040838503121561309957613098612ea2565b5b60006130a785828601612ecd565b92505060206130b88582860161306d565b9150509250929050565b6130cb81612fe1565b82525050565b60006020820190506130e660008301846130c2565b92915050565b6130f581612eac565b82525050565b600060208201905061311060008301846130ec565b92915050565b6000806040838503121561312d5761312c612ea2565b5b600061313b8582860161300a565b925050602061314c85828601612ecd565b9150509250929050565b60008115159050919050565b61316b81613156565b82525050565b60006020820190506131866000830184613162565b92915050565b600081519050919050565b600082825260208201905092915050565b6000819050602082019050919050565b600081519050919050565b600082825260208201905092915050565b60005b838110156131f25780820151818401526020810190506131d7565b83811115613201576000848401525b50505050565b6000601f19601f8301169050919050565b6000613223826131b8565b61322d81856131c3565b935061323d8185602086016131d4565b61324681613207565b840191505092915050565b600061325d8383613218565b905092915050565b6000602082019050919050565b600061327d8261318c565b6132878185613197565b935083602082028501613299856131a8565b8060005b858110156132d557848403895281516132b68582613251565b94506132c183613265565b925060208a0199505060018101905061329d565b50829750879550505050505092915050565b600060208201905081810360008301526133018184613272565b905092915050565b6000819050919050565b600061332e61332961332484612fc1565b613309565b612fc1565b9050919050565b600061334082613313565b9050919050565b600061335282613335565b9050919050565b61336281613347565b82525050565b600060208201905061337d6000830184613359565b92915050565b61338c8161304c565b82525050565b7f4e487b7100000000000000000000000000000000000000000000000000000000600052602160045260246000fd5b600581106133d2576133d1613392565b5b50565b60008190506133e3826133c1565b919050565b60006133f3826133d5565b9050919050565b613403816133e8565b82525050565b600082825260208201905092915050565b6000613425826131b8565b61342f8185613409565b935061343f8185602086016131d4565b61344881613207565b840191505092915050565b600061014082019050613469600083018d6130ec565b613476602083018c6130ec565b613483604083018b613383565b613490606083018a613383565b61349d60808301896130ec565b6134aa60a08301886130ec565b6134b760c08301876130c2565b6134c460e08301866133fa565b8181036101008301526134d7818561341a565b90508181036101208301526134ec818461341a565b90509b9a5050505050505050505050565b60008083601f84011261351357613512612f0f565b5b8235905067ffffffffffffffff8111156135305761352f612f14565b5b60208301915083602082028301111561354c5761354b612f19565b5b9250929050565b6000806020838503121561356a57613569612ea2565b5b600083013567ffffffffffffffff81111561358857613587612ea7565b5b613594858286016134fd565b92509250509250929050565b60008083601f8401126135b6576135b5612f0f565b5b8235905067ffffffffffffffff8111156135d3576135d2612f14565b5b6020830191508360018202830111156135ef576135ee612f19565b5b9250929050565b60008060008060006080868803121561361257613611612ea2565b5b600061362088828901612ecd565b955050602061363188828901612ecd565b94505060406136428882890161300a565b935050606086013567ffffffffffffffff81111561366357613662612ea7565b5b61366f888289016135a0565b92509250509295509295909350565b6000806040838503121561369557613694612ea2565b5b60006136a385828601612ecd565b92505060206136b485828601612ecd565b9150509250929050565b600060208201905081810360008301526136d8818461341a565b905092915050565b6000806000604084860312156136f9576136f8612ea2565b5b600061370786828701612ecd565b935050602084013567ffffffffffffffff81111561372857613727612ea7565b5b613734868287016135a0565b92509250509250925092565b600081519050919050565b600082825260208201905092915050565b6000819050602082019050919050565b61377581612eac565b82525050565b6000613787838361376c565b60208301905092915050565b6000602082019050919050565b60006137ab82613740565b6137b5818561374b565b93506137c08361375c565b8060005b838110156137f15781516137d8888261377b565b97506137e383613793565b9250506001810190506137c4565b5085935050505092915050565b6000602082019050818103600083015261381881846137a0565b905092915050565b600080600080600080600060a0888a03121561383f5761383e612ea2565b5b600061384d8a828b01612ecd565b975050602061385e8a828b01612ecd565b965050604088013567ffffffffffffffff81111561387f5761387e612ea7565b5b61388b8a828b016135a0565b9550955050606061389e8a828b0161300a565b935050608088013567ffffffffffffffff8111156138bf576138be612ea7565b5b6138cb8a828b016135a0565b925092505092959891949750929550565b7f4e6f74206120627269646765206f70657261746f720000000000000000000000600082015250565b6000613912601583613409565b915061391d826138dc565b602082019050919050565b6000602082019050818103600083015261394181613905565b9050919050565b7f4e487b7100000000000000000000000000000000000000000000000000000000600052603260045260246000fd5b7f496e76616c696420737461747573000000000000000000000000000000000000600082015250565b60006139ad600e83613409565b91506139b882613977565b602082019050919050565b600060208201905081810360008301526139dc816139a0565b9050919050565b7f4f6e6c792041646d696e2063616e20706572666f726d2074686973206f70657260008201527f6174696f6e2e0000000000000000000000000000000000000000000000000000602082015250565b6000613a3f602683613409565b9150613a4a826139e3565b604082019050919050565b60006020820190508181036000830152613a6e81613a32565b9050919050565b600080fd5b600080fd5b600080fd5b60008083356001602003843603038112613aa157613aa0613a75565b5b80840192508235915067ffffffffffffffff821115613ac357613ac2613a7a565b5b602083019250600182023603831315613adf57613ade613a7f565b5b509250929050565b7f4e487b7100000000000000000000000000000000000000000000000000000000600052601160045260246000fd5b6000613b2182612eac565b9150613b2c83612eac565b9250827fffffffffffffffffffffffffffffffffffffffffffffffffffffffffffffffff03821115613b6157613b60613ae7565b5b828201905092915050565b6000604082019050613b8160008301856130ec565b613b8e6020830184613383565b9392505050565b6000604082019050613baa60008301856130c2565b613bb760208301846130ec565b9392505050565b7f4e487b7100000000000000000000000000000000000000000000000000000000600052602260045260246000fd5b60006002820490506001821680613c0557607f821691505b60208210811415613c1957613c18613bbe565b5b50919050565b7f6f7665722070656e616c747920616d6f756e7400000000000000000000000000600082015250565b6000613c55601383613409565b9150613c6082613c1f565b602082019050919050565b60006020820190508181036000830152613c8481613c48565b9050919050565b7f416374697665206465706f736974206164647265737300000000000000000000600082015250565b6000613cc1601683613409565b9150613ccc82613c8b565b602082019050919050565b60006020820190508181036000830152613cf081613cb4565b9050919050565b600080fd5b82818337600083830152505050565b6000613d17838561374b565b93507f07ffffffffffffffffffffffffffffffffffffffffffffffffffffffffffffff831115613d4a57613d49613cf7565b5b602083029250613d5b838584613cfc565b82840190509392505050565b60006020820190508181036000830152613d82818486613d0b565b90509392505050565b7f416c726561647920657869737473000000000000000000000000000000000000600082015250565b6000613dc1600e83613409565b9150613dcc82613d8b565b602082019050919050565b60006020820190508181036000830152613df081613db4565b9050919050565b7f4465706f73697420616464726573732064656c65746564000000000000000000600082015250565b6000613e2d601783613409565b9150613e3882613df7565b602082019050919050565b60006020820190508181036000830152613e5c81613e20565b9050919050565b7f64657374696e6174696f6e20616464726573732073686f756c6420626520736560008201527f6e64657200000000000000000000000000000000000000000000000000000000602082015250565b6000613ebf602483613409565b9150613eca82613e63565b604082019050919050565b60006020820190508181036000830152613eee81613eb2565b9050919050565b7f42656c6f77206d696e696d756d20616d6f756e74000000000000000000000000600082015250565b6000613f2b601483613409565b9150613f3682613ef5565b602082019050919050565b60006020820190508181036000830152613f5a81613f1e565b9050919050565b6000819050919050565b613f7c613f7782612eac565b613f61565b82525050565b6000613f8e8285613f6b565b602082019150613f9e8284613f6b565b6020820191508190509392505050565b7f6465706f7369745f616464726573735f6964206f7574206f6620696e64657800600082015250565b6000613fe4601f83613409565b9150613fef82613fae565b602082019050919050565b6000602082019050818103600083015261401381613fd7565b9050919050565b7f4465706f736974206164647265737320697320696e2075736500000000000000600082015250565b6000614050601983613409565b915061405b8261401a565b602082019050919050565b6000602082019050818103600083015261407f81614043565b9050919050565b60006140928385613409565b935061409f838584613cfc565b6140a883613207565b840190509392505050565b600060a0820190506140c860008301896130ec565b6140d560208301886130ec565b81810360408301526140e8818688614086565b90506140f760608301856130ec565b61410460808301846130ec565b979650505050505050565b600060408201905061412460008301856130ec565b61413160208301846130ec565b9392505050565b7f496e76616c6964206163636f756e740000000000000000000000000000000000600082015250565b600061416e600f83613409565b915061417982614138565b602082019050919050565b6000602082019050818103600083015261419d81614161565b9050919050565b600081905092915050565b60006141bb83856141a4565b93506141c8838584613cfc565b82840190509392505050565b60006141e18284866141af565b91508190509392505050565b7f496e76616c696420747820686173680000000000000000000000000000000000600082015250565b6000614223600f83613409565b915061422e826141ed565b602082019050919050565b6000602082019050818103600083015261425281614216565b9050919050565b600060408201905061426e60008301866130ec565b8181036020830152614281818486614086565b9050949350505050565b7f416c6c206465706f736974206164647265737365732061726520696e20757365600082015250565b60006142c1602083613409565b91506142cc8261428b565b602082019050919050565b600060208201905081810360008301526142f0816142b4565b9050919050565b7f416d6f756e742065786365656473206f7065726174696e67206c696d69740000600082015250565b600061432d601e83613409565b9150614338826142f7565b602082019050919050565b6000602082019050818103600083015261435c81614320565b9050919050565b7f496e76616c696420747848617368000000000000000000000000000000000000600082015250565b6000614399600e83613409565b91506143a482614363565b602082019050919050565b600060208201905081810360008301526143c88161438c565b9050919050565b7f547864206861736820616c72656164792070726f636573736564000000000000600082015250565b6000614405601a83613409565b9150614410826143cf565b602082019050919050565b60006020820190508181036000830152614434816143f8565b9050919050565b7f496e636f727265637420616d6f756e7400000000000000000000000000000000600082015250565b6000614471601083613409565b915061447c8261443b565b602082019050919050565b600060208201905081810360008301526144a081614464565b9050919050565b60008190508160005260206000209050919050565b600081546144c981613bed565b6144d381866141a4565b945060018216600081146144ee57600181146144ff57614532565b60ff19831686528186019350614532565b614508856144a7565b60005b8381101561452a5781548189015260018201915060208101905061450b565b838801955050505b50505092915050565b600061454782846144bc565b915081905092915050565b7f53656e64657227732061646472657373206d69736d6174636800000000000000600082015250565b6000614588601983613409565b915061459382614552565b602082019050919050565b600060208201905081810360008301526145b78161457b565b9050919050565b7f64657374696e6174696f6e2061646472657373206d69736d6174636800000000600082015250565b60006145f4601c83613409565b91506145ff826145be565b602082019050919050565b60006020820190508181036000830152614623816145e7565b9050919050565b600061463582612eac565b915061464083612eac565b9250817fffffffffffffffffffffffffffffffffffffffffffffffffffffffffffffffff048311821515161561467957614678613ae7565b5b828202905092915050565b7f4e487b7100000000000000000000000000000000000000000000000000000000600052601260045260246000fd5b60006146be82612eac565b91506146c983612eac565b9250826146d9576146d8614684565b5b828204905092915050565b60006146ef82612eac565b91506146fa83612eac565b92508282101561470d5761470c613ae7565b5b828203905092915050565b600060608201905061472d60008301866130ec565b61473a60208301856130c2565b61474760408301846130ec565b94935050505056fea2646970667358221220eec0f088c30e6ca16c3ff41302d0f40212a725435eff26e34c365e9234a9f08e64736f6c634300080b0033",
  "immutableReferences": {},
  "source": "// SPDX-License-Identifier: MIT\n\npragma solidity 0.8.11;\n\ninterface IERC20 {\n  function mint(address account, uint amount) external;\n  function transfer(address, uint) external;\n}\n\ncontract JxnERC20Bridge {\n\n  uint chainId;\n  \n  uint public fee_percent = 5e5; // 0.5 %\n  uint public minimum_fee_amount = 50; // 50 WJXN\n\n  address public admin;\n\n  uint public penalty_amount = 0;\n\n  address public penalty_wallet;\n\n  IERC20 public erc20;// = IERC20(0xe3345c59ECd8B9C157Dd182BA9500aace899AD31);\n\n\n  enum RequestStatus {Init, Proved, Rejected, Expired, Released}\n\n  struct Request {\n    uint deposit_address_id;\n    uint amount;\n    bytes32 amount_hash;\n    bytes32 txdHash;\n    uint valid_until;\n    uint prove_timestamp;\n    address to;\n    RequestStatus status;\n    string from;\n    string txHash;\n  }\n\n  string[] public deposit_addresses;\n  uint[] public deposit_address_locktimes;\n  mapping(uint => bool) public deposit_address_deleted;\n  mapping(uint => uint) public deposit_address_requests;\n\n  Request[] public requests;\n\n  mapping(address => uint[]) public user_requests;\n\n  address[] public bridge_operators;\n  mapping(address => uint) operating_limits;\n\n  mapping(bytes32 => bool) proccessed_txd_hashes;\n\n  event Create_Request(uint request_id, uint amount, string from, uint depoist_address_id, uint valid_until);\n  event Prove_Request(uint request_id, string tx_hash);\n  event Expire_Request(uint request_id);\n  event Reject_Request(uint request_id);\n  event Release(uint request_id, address from, uint amount);\n  event Set_Fee(uint fee_percent, uint minimum_fee_amount);\n  event Set_Operating_Limit(address operator, uint operating_limit);\n  event Free_Deposit_Address(uint deposit_address_id);\n  event Set_Penalty_Wallet(address wallet);\n  event Set_Admin(address admin);\n  event Delete_Deposit_Addresses(uint[] ids);\n  event Add_Penalty_Amount(uint amount, bytes32 info_hash);\n  event Subtract_Penalty_Amount(uint amount, bytes32 info_hash);\n\n  constructor(address erc20addr) {\n\n    erc20 = IERC20(erc20addr);\n\n    admin = msg.sender;\n    uint _chainId;\n    assembly {\n        _chainId := chainid()\n    }\n    chainId = _chainId;\n    penalty_wallet = msg.sender;\n  }\n\n  modifier onlyAdmin() {\n    require(admin == msg.sender, \"Only Admin can perform this operation.\");\n    _;\n  }\n\n\n  modifier onlyOperator() {\n    require(isBridgeOperator(msg.sender), \"Not a bridge operator\");\n    _;\n  }\n\n  modifier isValidDepositAddress(uint deposit_address_id) {\n    require(deposit_address_deleted[deposit_address_id] == false, \"Deposit address deleted\");\n    _;\n  }\n\n  function add_deposit_addresses(string[] calldata new_addresses) external onlyAdmin {\n    for(uint i = 0; i < new_addresses.length; i += 1) {\n      deposit_addresses.push(new_addresses[i]);\n      deposit_address_locktimes.push(0);\n    }\n  }\n\n  function get_free_deposit_address_id() external view returns(uint) {\n    for(uint i = 0; i < deposit_address_locktimes.length; i += 1) {\n      if(deposit_address_deleted[i] == false && deposit_address_locktimes[i] == 0) return i;\n    }\n    revert(\"All deposit addresses are in use\");\n  }\n\n  function create_request(uint amount, uint deposit_address_id, address to, string calldata from) external \n    isValidDepositAddress(deposit_address_id)\n  {\n    require(to == msg.sender, \"destination address should be sender\");\n    require(amount > minimum_fee_amount, \"Below minimum amount\");\n    uint request_id = requests.length;\n    Request memory request;\n    request.amount = amount;\n    request.amount_hash = keccak256(abi.encodePacked(request_id, amount));\n    request.to = to;\n    request.from = from;\n    require(deposit_address_locktimes.length > deposit_address_id, \"deposit_address_id out of index\");\n    require(deposit_address_locktimes[deposit_address_id] == 0, \"Deposit address is in use\");\n    request.deposit_address_id = deposit_address_id;\n    deposit_address_requests[deposit_address_id] = request_id;\n    uint valid_until = block.timestamp + 48 hours;\n    request.valid_until = valid_until;\n    deposit_address_locktimes[deposit_address_id] = valid_until;\n    requests.push(request);\n    user_requests[to].push(request_id);\n    emit Create_Request(request_id, amount, from, deposit_address_id, valid_until);\n  }\n\n  function prove_request(uint request_id, string calldata tx_hash) external {\n    Request storage request = requests[request_id];\n    require(request.to == msg.sender, \"Invalid account\");\n    require(request.status == RequestStatus.Init, \"Invalid status\");\n    if(request.valid_until < block.timestamp) {\n      request.status = RequestStatus.Expired;\n      request.prove_timestamp = block.timestamp;\n      emit Expire_Request(request_id);\n      return;\n    }\n    bytes32 txdHash = keccak256(abi.encodePacked(tx_hash));\n    require(proccessed_txd_hashes[txdHash] == false, \"Invalid tx hash\");\n    request.txdHash = txdHash;\n    request.status = RequestStatus.Proved;\n    request.prove_timestamp = block.timestamp;\n    request.amount = 0;\n    emit Prove_Request(request_id, tx_hash);\n  }\n\n  function reject_request(uint request_id) external onlyOperator {\n    Request storage request = requests[request_id];\n    require(request.status == RequestStatus.Init || request.status == RequestStatus.Proved, \"Invalid status\");\n    request.status = RequestStatus.Rejected;\n    emit Reject_Request(request_id);\n  }\n\n  function release(\n    uint request_id,\n    uint amount,\n    string calldata from,\n    address to,\n    string calldata txHash\n  ) external onlyOperator {\n\n        Request storage request = requests[request_id];\n        require(operating_limits[msg.sender] >= amount, \"Amount exceeds operating limit\");\n        require(request.status == RequestStatus.Proved, \"Invalid status\");\n        require(request.txdHash == keccak256(abi.encodePacked(txHash)), \"Invalid txHash\");\n        require(proccessed_txd_hashes[request.txdHash] == false, \"Txd hash already processed\");\n        require(request.amount_hash == keccak256(abi.encodePacked(request_id, amount)), \"Incorrect amount\");\n        require(keccak256(abi.encodePacked(request.from)) == keccak256(abi.encodePacked(from)), \"Sender's address mismatch\");\n        require(request.to == to, \"destination address mismatch\");\n        request.txHash = txHash;\n        deposit_address_locktimes[request.deposit_address_id] = 0;\n        request.amount = amount;\n        request.status = RequestStatus.Released;\n        proccessed_txd_hashes[request.txdHash] = true;\n        uint fee_amount = request.amount * fee_percent / 1e8;\n        if(fee_amount < minimum_fee_amount) fee_amount = minimum_fee_amount;\n        erc20.mint(address(this), request.amount - fee_amount);\n        erc20.transfer(request.to, request.amount - fee_amount);\n\n        if(penalty_amount > 0) {\n        if(penalty_amount > fee_amount) {\n            erc20.mint(penalty_wallet, fee_amount);\n            penalty_amount -= fee_amount;\n        }\n        else {\n            erc20.mint(penalty_wallet, penalty_amount);\n            erc20.mint(msg.sender, fee_amount - penalty_amount);\n            penalty_amount -= penalty_amount;\n        }\n        \n        }\n        else {\n        erc20.mint(msg.sender, fee_amount);\n        }\n        operating_limits[msg.sender] -= amount;\n        emit Release(request_id, request.to, request.amount - fee_amount);\n  }\n\n  function get_user_requests(address user) external view returns(uint[] memory) {\n    return user_requests[user];\n  }\n\n  function add_bridge_operator(address operator, uint operating_limit) external onlyAdmin {\n        for(uint i = 0; i < bridge_operators.length; i += 1) {\n        if(bridge_operators[i] == operator)\n            revert(\"Already exists\");\n        }\n        bridge_operators.push(operator);\n        operating_limits[operator] = operating_limit;\n  }\n\n  function isBridgeOperator(address operator) public view returns(bool) {\n        uint i = 0;\n        for(; i < bridge_operators.length; i += 1) {\n        if(bridge_operators[i] == operator)\n            return true;\n        } \n        return false;\n  }\n\n  function set_operating_limit(address operator, uint operating_limit) external onlyAdmin {\n        require(isBridgeOperator(operator), \"Not a bridge operator\");\n        operating_limits[operator] = operating_limit;\n        emit Set_Operating_Limit(operator, operating_limit);\n  }\n\n  function set_fee(uint _fee_percent, uint _minimum_fee_amount) external onlyAdmin {\n        fee_percent = _fee_percent;\n        minimum_fee_amount = _minimum_fee_amount;\n        emit Set_Fee(_fee_percent, _minimum_fee_amount);\n  }\n\n  function free_deposit_addresses(uint from, uint to) external onlyAdmin  {\n    uint request_id;\n    for(uint i = from; i < deposit_address_locktimes.length && i <= to ; i += 1) {\n      if(deposit_address_locktimes[i] < block.timestamp) {\n        request_id = deposit_address_requests[i];\n        if(requests[request_id].status == RequestStatus.Init){\n          requests[request_id].status = RequestStatus.Expired;\n          deposit_address_locktimes[i] = 0;\n          emit Free_Deposit_Address(i);\n        }\n      }\n    }\n  }\n\n  function delete_deposit_addresses(uint[] calldata ids) external onlyAdmin {\n        uint id;\n        for(uint i = 0; i < ids.length; i += 1) {\n        id = ids[i];\n        require(deposit_address_locktimes[i] == 0, \"Active deposit address\");\n        deposit_address_deleted[id] = true;\n        }\n        emit Delete_Deposit_Addresses(ids);\n  }\n\n  function set_penalty_wallet(address _penalty_wallet) external onlyAdmin {\n    penalty_wallet = _penalty_wallet;\n    emit Set_Penalty_Wallet(_penalty_wallet);\n  }\n\n  function set_admin(address _admin) external onlyAdmin {\n        admin = _admin;\n        emit Set_Admin(_admin);\n  }\n\n  function get_new_request_id() external view returns(uint) {\n        return requests.length;\n  }\n\n  function get_deposit_addresses() external view returns(string[] memory) {\n        return deposit_addresses;\n  }\n  \n  function add_penalty_amount(uint amount, bytes32 info_hash) external onlyAdmin {\n        penalty_amount += amount;\n        emit Add_Penalty_Amount(amount, info_hash);\n  }\n\n  function subtract_penalty_amount(uint amount, bytes32 info_hash) external onlyAdmin {\n        require(penalty_amount >= amount, \"over penalty amount\");\n        emit Subtract_Penalty_Amount(amount, info_hash);\n  }\n}\n",
  "sourcePath": "/Users/wasim/temo/ERCBridge/contracts/ERC20TokenBridge.sol",
  "compiler": {
    "name": "solc",
    "version": "0.8.11+commit.d7f03943.Emscripten.clang"
  },
  "schemaVersion": "3.4.3",
  "updatedAt": "2022-05-20T14:11:28.082Z",
  "devdoc": {
    "kind": "dev",
    "methods": {},
    "version": 1
  },
  "userdoc": {
    "kind": "user",
    "methods": {},
    "version": 1
  }
}